:020000040000FA
:0600000000F019EF00F012
:10000800FFFF7182F2B4F2AA0CD0F294010E5726C7
:10001800000E582259225A22D768340ED66E22EC86
:0E00280009F0FFFF71921100FFFF8AEF08F050
:100600000068685800686864006868690068686E17
:100610000068686F006868750068687800256C7508
:10062000006C58007A58006C64007A64006C6900B1
:100630007A69006C6E007A6E006C6F007A6F007AD7
:1006400075006C78007A780025640000FFFF125076
:10065000800B1B6E12501224216E11BE218021507E
:10066000D8B40ED02128D8A408D0000E0F6E000EEA
:10067000106E000E116E000E126EFFFF118E09D06B
:10068000FFFF000E0F6E000E106E000E116E000EBA
:10069000126EFFFF1650800B1B1A16501624206E88
:1006A00015BE20802050D8B40ED02028D8A408D061
:1006B000000E136E000E146E000E156E000E166EF8
:1006C000FFFF158E09D0FFFF000E136E000E146E93
:1006D000000E156E000E166EFFFF2050D8B403D02A
:1006E0002150D8A40AD0FFFF000E0F6E000E106E2E
:1006F000000E116E000E126E67D1FFFF15500F0233
:10070000F3CF26F0F4CF27F026501C6E1D6A1E6A28
:100710001F6A2750226E236A246A256A1450100229
:10072000F3CF26F0F4CF27F026501C26000E1D2212
:100730001E221F2227502226000E23222422252299
:1007400013501102F3CF26F0F4CF27F026501C26C9
:10075000000E1D221E221F2227502226000E2322B9
:10076000242225221EC01FF01DC01EF01CC01DF03B
:100770001C6A13501002F3CF26F0F4CF27F0265056
:100780001C2627501D22000E1E22000E1F22145070
:100790000F02F3CF26F0F4CF27F026501C26275067
:1007A0001D22000E1E22000E1F221EC01FF01DC0A3
:1007B0001EF01CC01DF01C6A13500F02F3CF26F070
:1007C000F4CF27F026501C2627501D22000E1E2293
:1007D000000E1F2215501002F3CF26F0F4CF27F0A1
:1007E0002650222627502322000E2422000E2522E6
:1007F00014501102F3CF26F0F4CF27F02650222612
:1008000027502322000E2422000E2522155011020B
:10081000F3CF26F0F4CF27F02650176E2750186E2E
:10082000196A1A6A19C01AF018C019F017C018F01E
:10083000176A1750222618502322195024221A50C2
:1008400025221CC017F01DC018F01EC019F01FC0D3
:100850001AF0190E06D0FFFFD8901A32193218324A
:100860001732FFFFE82EF7D7175022261850232201
:10087000195024221A5025221EC01FF01DC01EF040
:100880001CC01DF01C6A205021C017F0186A1726E2
:10089000000E1822820E1724266EFF0E1820276ED7
:1008A00010D0FFFFD89022362336243625361FBEBF
:1008B0002280D8901C361D361E361F362606D8A03C
:1008C0002706FFFF24AEEDD7000E206E1FAE19D015
:1008D000FF0E1C14176EFF0E1D14186EFF0E1E1453
:1008E000196E7F0E1F141A6E1750181019101A1057
:1008F000D8B404D0FFFF010E206E03D0FFFF22B05A
:10090000F9D7FFFF2050D8B41FD0010E2226000EC9
:1009100023222422252225A017D022C017F023C08D
:1009200018F024C019F025C01AF01A341A321932FE
:100930001832173217C022F018C023F019C024F063
:100940001AC025F0264A272AFFFF27BE0DD02750C0
:1009500003E12628D8A008D0000E226E000E236ED8
:10096000800E246E7F0E23D0FFFF27BE05D02750B8
:100970000FE12604D8B00CD0FFFF000E226E000E4F
:10098000236E000E246E000E256E000E1B6E11D01D
:10099000FFFF26C021F0FF0E2216FF0E23167F0E4A
:1009A0002416000E251621B0248ED8902130FFFF8A
:1009B000256EFFFF1B50251222C00FF023C010F040
:1009C00024C011F025C012F0FFFF1200FFFFFFFF4F
:1009D0000450800B0D6E045004240F6E03BE0F8074
:1009E0000F50D8B40ED00F28D8A408D0000E016E36
:1009F000000E026E000E036E000E046EFFFF038EEB
:100A000007D0FFFF000E016E000E026E000E036E97
:100A1000FFFF000E046E0850800B0E6E0D500E1876
:100A2000D8A40D8C085008240E6E07BE0E800E5000
:100A3000D8B40ED00E28D8A408D0000E056E000E33
:100A4000066E000E076E000E086EFFFF078E07D0C1
:100A5000FFFF000E056E000E066E000E076EFFFF14
:100A6000000E086E0F500E5CD8B023D00DAC02D033
:100A7000800E0D1AFFFF0FC010F00EC00FF010C057
:100A80000EF001C010F005C001F010C005F002C06A
:100A900010F006C002F010C006F003C010F007C04E
:100AA00003F010C007F004C010F008C004F010C03C
:100AB00008F0FFFF000E106E0F500EC009F00A6A1A
:100AC000095E000E0A5A0ABE31D00A5004E11A0E1D
:100AD000095CD8A02BD00150021003100410D8B428
:100AE00002D0010E02D0FFFF000EFFFF106E000EBD
:100AF000016E000E026E000E036E000E046E0EC03C
:100B00000FF019D0FFFF10A005D0D89010300109C8
:100B1000106E03D0FFFFD8901032FFFF01B0108E8F
:100B2000043404320332023201320F2AFFFF0E5026
:100B30000F5CD8A0E7D7FFFF0DBC21D00F50D8B471
:100B400065D00550012606500222075003220850A6
:100B5000042204A07BD010A005D0D8901030010949
:100B6000106E03D0FFFFD8901032FFFF01B0108E3F
:100B7000043404320332023201320F2A67D0FFFFFD
:100B80000550015C06500258075003580450800A73
:100B9000096E0850800A0958D8B025D00150055C6C
:100BA000096E025006580A6E035007580B6E045027
:100BB00008580C6EFF0E0924016EFF0E0A20026E0B
:100BC000FF0E0B20036EFF0E0C20046E800E0D1A1C
:100BD000106C1050D8A410D0010E0126000E022275
:100BE0000322042209D0FFFF0550015E0650025A7D
:100BF0000750035A0850045AFFFF01500210031017
:100C00000410D8A420D01050D8A41DD0FFFF000E8F
:100C1000016E000E026E000E036E000E046E76D0A2
:100C2000FFFFD890013602360336043610BE01802D
:100C300010A002D0D88002D0FFFFD890FFFF10365E
:100C40000F50D8A40F06FFFF03AEEAD7FFFF000E38
:100C50000E6E10AE0DD010C009F07F0E0916D8B47C
:100C600004D0FFFF010E0E6E03D0FFFF01B0F9D7D5
:100C7000FFFF0E50D8B420D0010E0126000E022234
:100C80000322042204A018D001C009F002C00AF017
:100C900003C00BF004C00CF00C340C320B320A32DF
:100CA000093209C001F00AC002F00BC003F00CC009
:100CB00004F00F28D8A40F2AFFFF0F28D8B403D0C0
:100CC0000F50D8A40ED0FFFF000E016E000E026E72
:100CD000000E036E000E046E0F50D8A402D0000E5A
:100CE0000D6EFFFF0FA002D0038E02D0FFFF039E08
:100CF000FFFFD8900F30046E0DBE048E01C001F0CE
:100D000002C002F003C003F004C004F0FFFF1200B1
:100D1000FFFFFFFF096E0950D8A404AE1AD001C02E
:100D200005F002C006F003C007F004C008F0051E7D
:100D3000061E071E081E052A000E0622072208228C
:100D400005C00BF006C00CF007C00DF008C00EF097
:100D500009D0FFFF01C00BF002C00CF003C00DF082
:100D600004C00EF0FFFF0150021003100410D8A4BD
:100D700009D0000E016E000E026E000E036E000E12
:100D8000046E72D0FFFF960E0A6E07D0FFFF0A2A8C
:100D9000D8900E320D320C320B32FFFF000E0B14C6
:100DA000056E000E0C14066E000E0D14076EFE0E7E
:100DB0000E14086E0550061007100810D8B40ED097
:100DC000E5D7FFFF0A2A010E0B26000E0C220D228A
:100DD0000E22D8900E320D320C320B32FFFF000E75
:100DE0000B14056E000E0C14066E000E0D14076E2B
:100DF000FF0E0E14086E0550061007100810D8B428
:100E000008D0DFD7FFFF0A06D8900B360C360D3618
:100E10000E36FFFF0DBE03D0020E0A60F3D7FFFFB0
:100E20000AA00D9ED8900A320AC005F0066A076A29
:100E3000086A05C008F0076A066A056A05500B12C1
:100E400006500C1207500D1208500E120950D8A46B
:100E500004AE01D00E8EFFFF0BC001F00CC002F0FB
:100E60000DC003F00EC004F0FFFF1200FFFFFFFFF4
:100E700040344134476E4750D8A40AD0FFFF000EDB
:100E80003E6E000E3F6E000E406E000E416E56D05C
:100E9000FFFF3EC042F03FC043F040C044F041C0BD
:100EA00045F0200E06D0FFFFD89045324432433241
:100EB0004232FFFFE82EF7D74250466E408EFF0EBB
:100EC0003E16FF0E3F16FF0E4016000E4116960E00
:100ED000475E47AE0ED04750800A970FD8A0CED7B6
:100EE000FFFFD890413240323F323E32473EF8D782
:100EF00010D0FFFF1F0E476408D0C0D7FFFFD89067
:100F00003E363F36403641364706FFFF4750D8A4AD
:100F1000F5D7FFFF4650D8B408D0411E401E3F1EF3
:100F20003E6C000E3F2240224122FFFF3EC03EF0B9
:100F30003FC03FF040C040F041C041F0FFFF120011
:100F4000FFFFFFFF17EC09F0C1909280000E60ECEC
:100F500008F001C03CF002C03DF03CC001F03DC0D3
:100F600002F0036A046A000E89EC06F001C00FF07B
:100F700002C010F003C011F004C012F09F0E136EF7
:100F8000AB0E146EAD0E156E3B0E166E26EC03F016
:100F90000FC034F010C035F011C036F012C037F079
:100FA000000E286E000E296E480E2A6E430E2B6E20
:100FB000000E136E000E146E0C0E156E420E166EA1
:100FC00034C00FF035C010F036C011F037C012F049
:100FD00026EC03F00FC02CF010C02DF011C02EF045
:100FE00012C02FF0AFEC08F028C038F029C039F05B
:100FF0002AC03AF02BC03BF038C030F039C031F095
:101000003AC032F03BC033F01200FFFFFFFF949470
:101010009D829F82D08E000E026E0168F7EC08F070
:10102000FFFF000E4D6E000E4C6ED4EC08F01EEC6F
:1010300009F003EC09F00DEC09F0948E949CA1ECFE
:1010400007F030C03EF031C03FF032C040F033C056
:1010500041F037EC07F04C4A4D2A949E4D0E496EF4
:10106000260E486E050EFFFFE82EFDD7482EFBD753
:10107000492EF9D700D0030E016EAB0EE6EC08F056
:101080004D0E496E260E486E050EFFFFE82EFDD769
:10109000482EFBD7492EF9D700D0030E016EFF0E64
:1010A000E6EC08F04D0E496E260E486E050EFFFF69
:1010B000E82EFDD7482EFBD7492EF9D700D0B0D760
:1010C000FFFF056E070E056405D0000E026E000ED0
:1010D000016E1DD0FFFFC50EC2160538E842F80BA1
:1010E000C212080E036ECB0EFFFFE82EFDD7032EB3
:1010F000FBD700D0C284FFFFC2B4FDD7C450046E3A
:10110000036AC3500324016E000E0420026EFFFF29
:101110001200FFFF4C0EF66E120EF76E000EF86E08
:1011200000EE6AF010EE07F00900F5CFEEFFE55093
:10113000E150FAE100EE80F0200EEE6AE806FDE1F3
:1011400000EE4EF01C0EEE6AE806FDE17190719221
:10115000000EF86E060EF76E000106EF08F0FFFFB6
:10116000000E2C1A000E2D1A000E2E1A800E2F1AA9
:1011700028C001F029C002F02AC003F02BC004F0FF
:101180002CC005F02DC006F02EC007F02FC008F0CF
:10119000E7EC04F001C028F002C029F003C02AF0F7
:1011A00004C02BF01200FFFFFFFF000E576E000E71
:1011B000586E000E596E000E5A6ED59CD768340ECC
:1011C000D66EF294000ED56E1200FFFFFFFF026E86
:1011D00002C0BEFF000E036E015003120338F00B75
:1011E000036EBD50CF0B0310BD6E1200FFFFFFFF5B
:1011F000CA9CCB68AA0EBE6EBD50070ECA6E0C0EFE
:10120000BD121200FFFFFFFFAC8CAC8AAC98AC940F
:10121000AC80190EAF6E1200FFFFFFFF000EAB6E29
:10122000AB8EAB8CAB88AB96AB801200FFFFFFFFA1
:10123000810EC26E800EC16E1200FFFFFFFFD58EC1
:101240001200FFFFFFFFD58E1200FFFF286E756CA6
:031250006C290006
:02125400FFFF9A
:020000040020DA
:08000000FFFFFFFFFFFFFFFF00
:020000040030CA
:0E000000FF220F0EFF0181FF0FC00FE00F4027
:00000001FF
