:020000040000FA
:0600000000F01AEF00F011
:10000800FFFF7F82F2B4F2AA0DD0F294010E000134
:100018008927000E8A238B238C23D768340ED66E4B
:10002800D8EC1CF0FFFF7F921100FFFF8BEF1BF055
:100600000068685800686864006868690068686E17
:100610000068686F006868750068687800256C7508
:10062000006C58007A58006C64007A64006C6900B1
:100630007A69006C6E007A6E006C6F007A6F007AD7
:1006400075006C78007A780025640000FFFF45C0D3
:10065000D9FF46C0DAFFDECFF6FFDDCFF7FF080097
:10066000FFFFF550250AD8A4D7EF0BF045C0D9FFFE
:1006700046C0DAFFDE2A000EDD22000E0001926F76
:10068000000E916F91C095F092C096F093699469B5
:10069000000E5A6E000E20D0FFFF00019581FFFF73
:1006A00045C0D9FF46C0DAFFDE2A000EDD223AD06F
:1006B000FFFF00019583F3D7FFFF00019585EFD77A
:1006C000FFFF00019587EBD7FFFF00019589E7D772
:1006D000FFFF000E5A6E010EFFFF596E23D0FFFF81
:1006E00045C0D9FF46C0DAFFDECFF6FFDDCFF7FF0A
:1006F0000800FFFFF550496E4A6A4A50000AD8A424
:10070000E7D74950200AD8B4DBD7030AD8B4DCD7DE
:10071000080AD8B4D1D7060AD8B4BED71D0AD8B4AF
:10072000C7D7D6D7FFFF59505A10D8B4D8D7000131
:1007300095B1959345C0D9FF46C0DAFFDECFF6FFED
:10074000DDCFF7FF0800FFFFF5502A0AD8A423D019
:1007500045C0D9FF46C0DAFFDE2A000EDD2247C0C1
:10076000D9FF48C0DAFFDFCF49F0020EDE26DFCF27
:100770004AF0000EDD2249C0D9FF4AC0DAFFDECFC1
:1007800091F0DDCF92F092AF45D09581916D921F9F
:10079000D8B0922B3FD0FFFF45C0D9FF46C0DAFF4B
:1007A000DECF08F0DDCF09F068EC13F008C091F05F
:1007B00009C092F008D0FFFF45C0D9FF46C0DAFF5C
:1007C000DE2A000EDD22FFFFD00E496EFF0E4A6EBC
:1007D00045C0D9FF46C0DAFFDECFF6FFDDCFF7FF19
:1007E0000800FFFFF5504B6E4C6A49504B264A50AB
:1007F0004C224C5006E10A0E4B5CD8B002D0010EE0
:1008000002D0FFFF000EFFFF5B6E5C6A5B505C1066
:10081000D8A4D1D7FFFF45C0D9FF46C0DAFFDECF4D
:10082000F6FFDDCFF7FF0800FFFFF5502E0AD8A432
:1008300075D0000E0001946F000E936F45C0D9FF74
:1008400046C0DAFFDE2A000EDD2245C0D9FF46C0D1
:10085000DAFFDECFF6FFDDCFF7FF0800FFFFF55030
:100860002A0AD8A41CD045C0D9FF46C0DAFFDE2A28
:10087000000EDD2247C0D9FF48C0DAFFDFCF49F0C4
:10088000020EDE26DFCF4AF0000EDD2249C0D9FF7E
:100890004AC0DAFFDECF93F0DDCF94F03FD0FFFF08
:1008A00045C0D9FF46C0DAFFDECF08F0DDCF09F042
:1008B00068EC13F008C093F009C094F008D0FFFF73
:1008C00045C0D9FF46C0DAFFDE2A000EDD22FFFF59
:1008D000D00E496EFF0E4A6E45C0D9FF46C0DAFF02
:1008E000DECFF6FFDDCFF7FF0800FFFFF5504B6EC0
:1008F0004C6A49504B264A504C224C5006E10A0E95
:100900004B5CD8B002D0010E02D0FFFF000EFFFFFB
:100910005D6E5E6A5D505E10D8A4D1D7FFFF45C002
:10092000D9FF46C0DAFFDECFF6FFDDCFF7FF0800C4
:10093000FFFFF550630AD8A427D045C0D9FF46C0B1
:10094000DAFFDE2A000EDD2247C0D9FF48C0DAFFF9
:10095000DFCF49F0020EDE26DFCF4AF0000EDD22A7
:1009600049C0D9FF4AC0DAFFDF50696E43C01CF0AE
:1009700044C01DF069C01EF088EC1AF01CC043F0A2
:100980001DC044F0F3EF0BF0FFFF45C0D9FF46C098
:10099000DAFFDECF01F0DDCF02F0050E036E060EAA
:1009A000046E000E066E030E056E53EC18F0015037
:1009B0000210D8B416D045C0D9FF46C0DAFFDECF4A
:1009C00001F0DDCF02F0090E036E060E046E000E7C
:1009D000066E030E056E53EC18F001500210D8A4F9
:1009E00043D0FFFF030E45C0D9FF46C0DAFFDE2625
:1009F000000EDD2247C0D9FF48C0DAFFDFCF49F043
:100A0000020EDE26DFCF4AF0000EDD2249C0D9FFFC
:100A10004AC0DAFFDF505F6E000E5FBEFF0E606EF1
:100A2000FFFF616E626E636E646E656E666EFFFFE1
:100A300043C01CF044C01DF05FC01EF060C01FF03A
:100A400061C020F062C021F063C022F064C023F0D6
:100A500065C024F066C025F059EC0FF01CC043F0CF
:100A60001DC044F0F3EF0BF0FFFF45C0D9FF46C0B7
:100A7000DAFFDECF01F0DDCF02F0060E036E060EC8
:100A8000046E000E066E020E056E53EC18F0015057
:100A90000210D8B416D045C0D9FF46C0DAFFDECF69
:100AA00001F0DDCF02F00A0E036E060E046E000E9A
:100AB000066E020E056E53EC18F001500210D8A419
:100AC00008D0FFFF020E45C0D9FF46C0DAFFDE2680
:100AD00023D0FFFF45C0D9FF46C0DAFFDECFF6FFC7
:100AE000DDCFF7FF0800FFFFF550640AD8B40ED041
:100AF00045C0D9FF46C0DAFFDECFF6FFDDCFF7FFF6
:100B00000800FFFFF550690AD8A421D0FFFF45C0B7
:100B1000D9FF46C0DAFFDE2AFFFF000EDD2247C004
:100B2000D9FF48C0DAFFDFCF49F0020EDE26DFCF63
:100B30004AF0000EDD2249C0D9FF4AC0DAFFDECFFD
:100B40005FF0DDCF60F0000E60BEFF0E69D7FFFFE3
:100B500045C0D9FF46C0DAFFDECF01F0DDCF02F09D
:100B6000270E036E060E046E000E066E020E056E54
:100B700053EC18F001500210D8B416D045C0D9FF7C
:100B800046C0DAFFDECF01F0DDCF02F02D0E036E9E
:100B9000060E046E000E066E020E056E53EC18F083
:100BA00001500210D8A443D0FFFF020E45C0D9FF68
:100BB00046C0DAFFDE26000EDD2247C0D9FF48C05E
:100BC000DAFFDFCF49F0040EDE26DFCF4AF0000E59
:100BD000DD2249C0D9FF4AC0DAFFDECF4BF0DECFBD
:100BE0004CF0DECF4DF0DECF4EF04BC04FF04CC09E
:100BF00050F04DC051F04EC052F0536A52BE53688F
:100C000053C054F053C055F053C056F04FC05FF07E
:100C100050C060F051C061F052C062F053C063F048
:100C200054C064F055C065F056C066F000D7FFFFB1
:100C300045C0D9FF46C0DAFFDECF01F0DDCF02F0BC
:100C40002A0E036E060E046E000E066E020E056E70
:100C500053EC18F001500210D8B416D045C0D9FF9B
:100C600046C0DAFFDECF01F0DDCF02F0300E036EBA
:100C7000060E046E000E066E020E056E53EC18F0A2
:100C800001500210D8A428D0FFFF020E45C0D9FFA2
:100C900046C0DAFFDE26000EDD2247C0D9FF48C07D
:100CA000DAFFDFCF49F0020EDE26DFCF4AF0000E7A
:100CB000DD2249C0D9FF4AC0DAFFDECF4BF0DDCFDD
:100CC0004CF04BC05FF04CC060F0616A626A636ACE
:100CD000646A656A666AABD6FFFF45C0D9FF46C045
:100CE000DAFFDECF01F0DDCF02F0110E036E060E4B
:100CF000046E000E066E030E056E53EC18F00150E4
:100D00000210D8A441D0030E45C0D9FF46C0DAFF77
:100D1000DE26000EDD2247C0D9FF48C0DAFFDFCF54
:100D200049F0020EDE26DFCF4AF0000EDD2249C078
:100D3000D9FF4AC0DAFFDF504B6E4B506A6E6B6AC8
:100D4000FFFF6C6A6D6AFFFF6E6A6F6A706A716A94
:100D500043C01CF044C01DF06AC01EF06BC01FF001
:100D60006CC020F06DC021F06EC022F06FC023F087
:100D700070C024F071C025F09BEC12F01CC043F051
:100D80001DC044F0F3EF0BF0FFFF45C0D9FF46C094
:100D9000DAFFDECF01F0DDCF02F0120E036E060E99
:100DA000046E000E066E020E056E53EC18F0015034
:100DB0000210D8B46BD045C0D9FF46C0DAFFDECFF1
:100DC000F6FFDDCFF7FF0800FFFFF5506F0AD8A44C
:100DD00006D045C0D9FF46C0DAFFDE2A5ED0FFFF4D
:100DE00045C0D9FF46C0DAFFDECF01F0DDCF02F00B
:100DF000390E036E060E046E000E066E020E056EB0
:100E000053EC18F001500210D8A429D0020E45C0AE
:100E1000D9FF46C0DAFFDE26000EDD2247C0D9FF2B
:100E200048C0DAFFDFCF49F0040EDE26DFCF4AF0FC
:100E3000000EDD2249C0D9FF4AC0DAFFDECF4BF0F9
:100E4000DECF4CF0DECF4DF0DECF4EF04B506A6E71
:100E50004C506B6E4D506C6E4E506D6E74D7FFFFE4
:100E600045C0D9FF46C0DAFFDECF01F0DDCF02F08A
:100E70003C0E036E060E046E000E066E020E056E2C
:100E800053EC18F001500210D8A423D0FFFF020E3B
:100E900045C0D9FF46C0DAFFDE26FFFF000EDD2287
:100EA00047C0D9FF48C0DAFFDFCF49F0020EDE2687
:100EB000DFCF4AF0000EDD2249C0D9FF4AC0DAFF79
:100EC000DECF4BF0DDCF4CF04BC06AF04CC06BF086
:100ED00037D7FFFF45C0D9FF46C0DAFFDECF01F0AC
:100EE000DDCF02F00D0E036E060E046E000E066ED0
:100EF000030E056E53EC18F001500210D8A428D050
:100F0000030E45C0D9FF46C0DAFFDE26000EDD2203
:100F100047C0D9FF48C0DAFFDFCF49F0020EDE2616
:100F2000DFCF4AF0000EDD2249C0D9FF4AC0DAFF08
:100F3000DECF67F0DDCF68F067C0D9FF68C0DAFFA9
:100F40008FC0DFFFFFFF000E446E000ECAEF0BF0F4
:100F5000FFFF45C0D9FF46C0DAFFDECF01F0DDCF8D
:100F600002F00E0E036E060E046E000E066E020EEA
:100F7000056E53EC18F001500210D8A40BD07FD0AE
:100F8000FFFF67C0D9FF68C0DAFF8FC0DEFF90C0E7
:100F9000DDFFD8D7FFFF45C0D9FF46C0DAFFDECF5F
:100FA000F6FFDDCFF7FF0800FFFFF5506E0AD8A46B
:100FB00006D045C0D9FF46C0DAFFDE2A67D0FFFF62
:100FC00045C0D9FF46C0DAFFDECF01F0DDCF02F029
:100FD000330E036E060E046E000E066E020E056ED4
:100FE00053EC18F001500210D8A432D0020E45C0C4
:100FF000D9FF46C0DAFFDE26000EDD2247C0D9FF4A
:1010000048C0DAFFDFCF49F0020EDE26DFCF4AF01C
:10101000000EDD2249C0D9FF4AC0DAFFDECF67F0FB
:10102000DDCF68F08FC049F090C04AF0000E4ABE94
:10103000FF0E4B6E4C6E67C0D9FF68C0DAFF49C027
:10104000DEFF4AC0DEFF4BC0DEFF4CC0DEFF7AD7BA
:10105000FFFF45C0D9FF46C0DAFFDECF01F0DDCF8C
:1010600002F0360E036E060E046E000E066E020EC1
:10107000056E53EC18F001500210D8A41FD0FFFFEA
:10108000020E45C0D9FF46C0DAFFDE26FFFF000E84
:10109000DD2247C0D9FF48C0DAFFDFCF49F0020E9A
:1010A000DE26DFCF4AF0000EDD2249C0D9FF4AC05C
:1010B000DAFFDECF67F0DDCF68F062D7FFFF45C013
:1010C000D9FF46C0DAFFDECFF6FFDDCFF7FF08001D
:1010D000FFFFF550700AD8A43ED045C0D9FF46C0E6
:1010E000DAFFDE2A000EDD2247C0D9FF48C0DAFF52
:1010F000DFCF49F0020EDE26DFCF4AF0000EDD2200
:1011000049C0D9FF4AC0DAFFDECF4BF0DDCF4CF04B
:101110004BC06AF04CC06BF06C6A6D6A6E6A6F6AA5
:10112000706A716A43C01CF044C01DF06AC01EF0B2
:101130006BC01FF06CC020F06DC021F06EC022F0BB
:101140006FC023F070C024F071C025F0780E266EB9
:101150008EEC10F0B4D1FFFF45C0D9FF46C0DAFFD6
:10116000DECFF6FFDDCFF7FF0800FFFFF550730A73
:10117000D8A42AD045C0D9FF46C0DAFFDE2A000E27
:10118000DD2247C0D9FF48C0DAFFDFCF49F0020EA9
:10119000DE26DFCF4AF0000EDD2249C0D9FF4AC06B
:1011A000DAFFDECF57F0DDCF58F043C00AF044C07D
:1011B0000BF057C00CF058C00DF077EC15F00AC0DA
:1011C00043F00BC044F00FD3FFFF45C0D9FF46C02A
:1011D000DAFFDECF01F0DDCF02F0150E036E060E52
:1011E000046E000E066E030E056E53EC18F00150EF
:1011F0000210D8A440D0030E45C0D9FF46C0DAFF84
:10120000DE26000EDD2247C0D9FF48C0DAFFDFCF5F
:1012100049F0020EDE26DFCF4AF0000EDD2249C083
:10122000D9FF4AC0DAFFDF504B6E4B506A6E6B6AD3
:10123000FFFF6C6A6D6AFFFF6E6A6F6A706A716A9F
:1012400043C01CF044C01DF06AC01EF06BC01FF00C
:101250006CC020F06DC021F06EC022F06FC023F092
:1012600070C024F071C025F0BAEC11F01CC043F03E
:101270001DC044F0B8D2FFFF45C0D9FF46C0DAFF19
:10128000DECF01F0DDCF02F0160E036E060E046E07
:10129000000E066E020E056E53EC18F0015002109F
:1012A000D8B46BD045C0D9FF46C0DAFFDECFF6FF19
:1012B000DDCFF7FF0800FFFFF550750AD8A406D070
:1012C00045C0D9FF46C0DAFFDE2A5ED0FFFF45C029
:1012D000D9FF46C0DAFFDECF01F0DDCF02F01E0EEF
:1012E000036E060E046E000E066E020E056E53ECC3
:1012F00018F001500210D8A429D0020E45C0D9FF21
:1013000046C0DAFFDE26000EDD2247C0D9FF48C006
:10131000DAFFDFCF49F0040EDE26DFCF4AF0000E01
:10132000DD2249C0D9FF4AC0DAFFDECF4BF0DECF65
:101330004CF0DECF4DF0DECF4EF04B506A6E4C508D
:101340006B6E4D506C6E4E506D6E75D7FFFF45C085
:10135000D9FF46C0DAFFDECF01F0DDCF02F03F0E4D
:10136000036E060E046E000E066E020E056E53EC42
:1013700018F001500210D8A423D0FFFF020E45C080
:10138000D9FF46C0DAFFDE26FFFF000EDD2247C090
:10139000D9FF48C0DAFFDFCF49F0020EDE26DFCFEB
:1013A0004AF0000EDD2249C0D9FF4AC0DAFFDECF85
:1013B0004BF0DDCF4CF04BC06AF04CC06BF038D72F
:1013C000FFFF45C0D9FF46C0DAFFDECF01F0DDCF19
:1013D00002F0190E036E060E046E000E066E030E6A
:1013E000056E53EC18F001500210D8B416D045C069
:1013F000D9FF46C0DAFFDECF01F0DDCF02F0010EEB
:10140000036E060E046E000E066E030E056E53ECA0
:1014100018F001500210D8A458D0FFFF45C0D9FFE2
:1014200046C0DAFFDECF49F0DDCF4AF0020E492692
:10143000000E4A2249C0F6FF4AC0F7FF0800FFFF2E
:10144000F5CF69F0030E45C0D9FF46C0DAFFDE26AE
:10145000000EDD2247C0D9FF48C0DAFFDFCF49F0D8
:10146000020EDE26DFCF4AF0000EDD2249C0D9FF92
:101470004AC0DAFFDF504B6E4B506A6E6B6AFFFF5B
:101480006C6A6D6AFFFF6E6A6F6A706A716A43C048
:101490001CF044C01DF06AC01EF06BC01FF06CC091
:1014A00020F06DC021F06EC022F06FC023F070C03C
:1014B00024F071C025F069C026F08EEC10F0FFFF1B
:1014C0001CC043F01DC044F08ED1FFFF45C0D9FFC2
:1014D00046C0DAFFDECF01F0DDCF02F01A0E036E58
:1014E000060E046E000E066E020E056E53EC18F02A
:1014F00001500210D8B416D045C0D9FF46C0DAFF5B
:10150000DECF01F0DDCF02F0020E036E060E046E98
:10151000000E066E020E056E53EC18F0015002101C
:10152000D8A414D0FFFF45C0D9FF46C0DAFFDECFF4
:1015300049F0DDCF4AF0010E4926000E4A2249C08B
:10154000F6FF4AC0F7FF0800FFFFDBD0FFFF45C0F2
:10155000D9FF46C0DAFFDECFF6FFDDCFF7FF080088
:10156000FFFFF550780AD8B40ED045C0D9FF46C069
:10157000DAFFDECFF6FFDDCFF7FF0800FFFFF55003
:10158000580AD8A413D0FFFF45C0D9FF46C0DAFFE0
:10159000DECFF6FFDDCFF7FF0800FFFFF5CF69F0E4
:1015A00045C0D9FF46C0DAFFDE2AB4D0FFFF45C0F0
:1015B000D9FF46C0DAFFDECF01F0DDCF02F0420EE8
:1015C000036E060E046E000E066E020E056E53ECE0
:1015D00018F001500210D8B416D045C0D9FF46C04B
:1015E000DAFFDECF01F0DDCF02F0210E036E060E32
:1015F000046E000E066E020E056E53EC18F00150DC
:101600000210D8A43ED0FFFF45C0D9FF46C0DAFF84
:10161000DECF49F0DDCF4AF0010E4926000E4A2206
:1016200049C0F6FF4AC0F7FF0800FFFFF5CF69F099
:10163000020E45C0D9FF46C0DAFFDE26000EDD22CD
:1016400047C0D9FF48C0DAFFDFCF49F0040EDE26DD
:10165000DFCF4AF0000EDD2249C0D9FF4AC0DAFFD1
:10166000DECF4BF0DECF4CF0DECF4DF0DECF4EF0D4
:101670004B506A6E4C506B6E4D506C6E4E506D6E92
:1016800001D7FFFF45C0D9FF46C0DAFFDECF01F02A
:10169000DDCF02F0450E036E060E046E000E066EE0
:1016A000020E056E53EC18F001500210D8B416D09B
:1016B00045C0D9FF46C0DAFFDECF01F0DDCF02F032
:1016C000240E036E060E046E000E066E020E056EEC
:1016D00053EC18F001500210D8A438D0FFFF45C0D9
:1016E000D9FF46C0DAFFDECF49F0DDCF4AF0010E68
:1016F0004926000E4A2249C0F6FF4AC0F7FF0800FB
:10170000FFFFFFFFF5CF69F0020E45C0D9FF46C0CD
:10171000DAFFDE26FFFF000EDD2247C0D9FF48C0FA
:10172000DAFFDFCF49F0020EDE26DFCF4AF0000EEF
:10173000DD2249C0D9FF4AC0DAFFDECF4BF0DDCF52
:101740004CF04BC06AF04CC06BF099D6FFFF45C01F
:10175000D9FF46C0DAFFDECFF6FFDDCFF7FF080086
:10176000FFFFF550250AD8A418D045C0D9FF46C0C0
:10177000DAFFDE2A000EDD22000E026E250E016E5B
:1017800043C003F044C004F012EC19F0FFFF000E58
:10179000446E010EFFFF436E26D0FFFF45C0D9FF08
:1017A00046C0DAFFDE2A000EDD22A2EF07F0FFFFBF
:1017B00045C0D9FF46C0DAFFDECFF6FFDDCFF7FF29
:1017C0000800FFFFF550016E026A43C003F044C0F9
:1017D00004F012EC19F045C0D9FF46C0DAFFDE2A4A
:1017E000000EDD22D3D7FFFF1200FFFFFFFF1250D4
:1017F000800B1B6E12501224216E11BE21802150CD
:10180000D8B40ED02128D8A408D0000E0F6E000E38
:10181000106E000E116E000E126EFFFF118E09D0B9
:10182000FFFF000E0F6E000E106E000E116E000E08
:10183000126EFFFF1650800B1B1A16501624206ED6
:1018400015BE20802050D8B40ED02028D8A408D0AF
:10185000000E136E000E146E000E156E000E166E46
:10186000FFFF158E09D0FFFF000E136E000E146EE1
:10187000000E156E000E166EFFFF2050D8B403D078
:101880002150D8A40AD0FFFF000E0F6E000E106E7C
:10189000000E116E000E126E67D1FFFF15500F0281
:1018A000F3CF26F0F4CF27F026501C6E1D6A1E6A77
:1018B0001F6A2750226E236A246A256A1450100278
:1018C000F3CF26F0F4CF27F026501C26000E1D2261
:1018D0001E221F2227502226000E232224222522E8
:1018E00013501102F3CF26F0F4CF27F026501C2618
:1018F000000E1D221E221F2227502226000E232208
:10190000242225221EC01FF01DC01EF01CC01DF089
:101910001C6A13501002F3CF26F0F4CF27F02650A4
:101920001C2627501D22000E1E22000E1F221450BE
:101930000F02F3CF26F0F4CF27F026501C262750B5
:101940001D22000E1E22000E1F221EC01FF01DC0F1
:101950001EF01CC01DF01C6A13500F02F3CF26F0BE
:10196000F4CF27F026501C2627501D22000E1E22E1
:10197000000E1F2215501002F3CF26F0F4CF27F0EF
:101980002650222627502322000E2422000E252234
:1019900014501102F3CF26F0F4CF27F02650222660
:1019A00027502322000E2422000E2522155011025A
:1019B000F3CF26F0F4CF27F02650176E2750186E7D
:1019C000196A1A6A19C01AF018C019F017C018F06D
:1019D000176A1750222618502322195024221A5011
:1019E00025221CC017F01DC018F01EC019F01FC022
:1019F0001AF0190E06D0FFFFD8901A321932183299
:101A00001732FFFFE82EF7D717502226185023224F
:101A1000195024221A5025221EC01FF01DC01EF08E
:101A20001CC01DF01C6A205021C017F0186A172630
:101A3000000E1822820E1724266EFF0E1820276E25
:101A400010D0FFFFD89022362336243625361FBE0D
:101A50002280D8901C361D361E361F362606D8A08A
:101A60002706FFFF24AEEDD7000E206E1FAE19D063
:101A7000FF0E1C14176EFF0E1D14186EFF0E1E14A1
:101A8000196E7F0E1F141A6E1750181019101A10A5
:101A9000D8B404D0FFFF010E206E03D0FFFF22B0A8
:101AA000F9D7FFFF2050D8B41FD0010E2226000E18
:101AB00023222422252225A017D022C017F023C0DC
:101AC00018F024C019F025C01AF01A341A3219324D
:101AD0001832173217C022F018C023F019C024F0B2
:101AE0001AC025F0264A272AFFFF27BE0DD027500F
:101AF00003E12628D8A008D0000E226E000E236E27
:101B0000800E246E7F0E23D0FFFF27BE05D0275006
:101B10000FE12604D8B00CD0FFFF000E226E000E9D
:101B2000236E000E246E000E256E000E1B6E11D06B
:101B3000FFFF26C021F0FF0E2216FF0E23167F0E98
:101B40002416000E251621B0248ED8902130FFFFD8
:101B5000256EFFFF1B50251222C00FF023C010F08E
:101B600024C011F025C012F0FFFF1200FFFFFFFF9D
:101B70000450800B0D6E045004240F6E03BE0F80C2
:101B80000F50D8B40ED00F28D8A408D0000E016E84
:101B9000000E026E000E036E000E046EFFFF038E39
:101BA00007D0FFFF000E016E000E026E000E036EE6
:101BB000FFFF000E046E0850800B0E6E0D500E18C5
:101BC000D8A40D8C085008240E6E07BE0E800E504F
:101BD000D8B40ED00E28D8A408D0000E056E000E82
:101BE000066E000E076E000E086EFFFF078E07D010
:101BF000FFFF000E056E000E066E000E076EFFFF63
:101C0000000E086E0F500E5CD8B023D00DAC02D081
:101C1000800E0D1AFFFF0FC010F00EC00FF010C0A5
:101C20000EF001C010F005C001F010C005F002C0B8
:101C300010F006C002F010C006F003C010F007C09C
:101C400003F010C007F004C010F008C004F010C08A
:101C500008F0FFFF000E106E0F500EC009F00A6A68
:101C6000095E000E0A5A0ABE31D00A5004E11A0E6B
:101C7000095CD8A02BD00150021003100410D8B476
:101C800002D0010E02D0FFFF000EFFFF106E000E0B
:101C9000016E000E026E000E036E000E046E0EC08A
:101CA0000FF019D0FFFF10A005D0D8901030010917
:101CB000106E03D0FFFFD8901032FFFF01B0108EDE
:101CC000043404320332023201320F2AFFFF0E5075
:101CD0000F5CD8A0E7D7FFFF0DBC21D00F50D8B4C0
:101CE00065D00550012606500222075003220850F5
:101CF000042204A07BD010A005D0D8901030010998
:101D0000106E03D0FFFFD8901032FFFF01B0108E8D
:101D1000043404320332023201320F2A67D0FFFF4B
:101D20000550015C06500258075003580450800AC1
:101D3000096E0850800A0958D8B025D00150055CBA
:101D4000096E025006580A6E035007580B6E045075
:101D500008580C6EFF0E0924016EFF0E0A20026E59
:101D6000FF0E0B20036EFF0E0C20046E800E0D1A6A
:101D7000106C1050D8A410D0010E0126000E0222C3
:101D80000322042209D0FFFF0550015E0650025ACB
:101D90000750035A0850045AFFFF01500210031065
:101DA0000410D8A420D01050D8A41DD0FFFF000EDE
:101DB000016E000E026E000E036E000E046E76D0F1
:101DC000FFFFD890013602360336043610BE01807C
:101DD00010A002D0D88002D0FFFFD890FFFF1036AD
:101DE0000F50D8A40F06FFFF03AEEAD7FFFF000E87
:101DF0000E6E10AE0DD010C009F07F0E0916D8B4CB
:101E000004D0FFFF010E0E6E03D0FFFF01B0F9D723
:101E1000FFFF0E50D8B420D0010E0126000E022282
:101E20000322042204A018D001C009F002C00AF065
:101E300003C00BF004C00CF00C340C320B320A322D
:101E4000093209C001F00AC002F00BC003F00CC057
:101E500004F00F28D8A40F2AFFFF0F28D8B403D00E
:101E60000F50D8A40ED0FFFF000E016E000E026EC0
:101E7000000E036E000E046E0F50D8A402D0000EA8
:101E80000D6EFFFF0FA002D0038E02D0FFFF039E56
:101E9000FFFFD8900F30046E0DBE048E01C001F01C
:101EA00002C002F003C003F004C004F0FFFF120000
:101EB000FFFFFFFF1EC036F01FC037F020C038F014
:101EC00021C039F022C03AF023C03BF024C03CF0DE
:101ED00025C03DF03DAE02D0010E02D0FFFF000E46
:101EE000FFFF346E356A34503510D8B410D03D1E23
:101EF0003C1E3B1E3A1E391E381E371E366C000E25
:101F00003722382239223A223B223C223D22FFFF4F
:101F1000000194AF959394BF05D0945109E19305C6
:101F2000D8B006D0FFFF000E316E010E306E05D026
:101F3000FFFF93C030F094C031F0FFFF91C032F04A
:101F400092C033F034503510D8A402D095A504D0F7
:101F5000FFFF3206D8A03306FFFF000E3F6E1F0EB4
:101F60003E6E000EBA6F7DD0FFFF3E06D8A03F0642
:101F70009B0E3E24D96E000E3F20DA6E36C001F073
:101F800037C002F038C003F039C004F03AC005F0A1
:101F90003BC006F03CC007F03DC008F00A0E096ED9
:101FA000000E0A6E000E0B6E000E0C6E000E0D6E13
:101FB000000E0E6E000E0F6E000E106E19EC16F075
:101FC00001C026F002C027F003C028F004C029F0A9
:101FD00005C02AF006C02BF007C02CF008C02DF079
:101FE00026C013F028C014F0C7EC1BF01350300FBC
:101FF000DF6E3006D8A031063206D8A0330636C0D0
:1020000001F037C002F038C003F039C004F03AC024
:1020100005F03BC006F03CC007F03DC008F00A0EDA
:10202000096E000E0A6E000E0B6E000E0C6E000E96
:102030000D6E000E0E6E000E0F6E000E106E1BEC7D
:1020400014F001C036F002C037F003C038F004C00D
:1020500039F005C03AF006C03BF007C03CF008C0BC
:102060003DF0FFFF3FBE21D03F5003E13E04D8A02A
:102070001CD036503710381039103A103B103C1035
:102080003D10D8A471D731BE05D0315002E13004E3
:10209000D8B06AD7FFFF33BE08D0335003E1320413
:1020A000D8A003D0000195B35FD7FFFF345035109F
:1020B000D8A403D0000195A51AD0FFFF3E06D8A0F2
:1020C0003F0634503510D8A404D0000E2F6E2B0ECE
:1020D00004D0FFFF000E2F6E2D0EFFFF2E6E9B0E05
:1020E0003E24D96E000E3F20DA6E2EC0DFFFFFFFC8
:1020F0001CC011F01DC012F09B0E3E24136E000E8A
:102100003F20146E32C015F033C016F068EC19F0A1
:1021100011C01CF012C01DF01200FFFFFFFF0001F4
:1021200094AF959394BF05D0945109E19305D8B02D
:1021300006D0FFFF000E346E010E336E05D0FFFF98
:1021400093C033F094C034F0FFFF91C035F092C0DB
:1021500036F095A904D0FE0E3526FF0E3622FFFF7D
:102160001EC037F01FC038F020C039F021C03AF04F
:1021700022C03BF023C03CF024C03DF025C03EF01F
:10218000000E406E1F0E3F6E000EBA6F9DD0FFFF17
:102190003F06D8A040060F0E3714416E426A42BE79
:1021A00008D0425004E10A0E415CD8A002D0570E7C
:1021B00002D0FFFF300EFFFF4124416E000E42208F
:1021C000426EBF0E276EFF0E286E2650296E2A6AB9
:1021D0002750292628502A222A5006E11A0E295C67
:1021E000D8B002D0010E02D0FFFF000EFFFF2F6E0D
:1021F000306A2F503010D8B429D09F0E276EFF0EB2
:10220000286E200E4110296E000E42102A6E2750B3
:10221000292628502A222A5006E11A0E295CD8B015
:1022200002D0010E02D0FFFF000EFFFF316E326AB6
:1022300031503210D8B40AD041C007F042C008F083
:102240005DEC1AF007C041F008C042F0FFFF9B0EA2
:102250003F24D96E000E4020DA6E41C0DFFF330606
:10226000D8A034063506D8A0360637C027F038C0C7
:1022700028F039C029F03AC02AF03BC02BF03CC00E
:102280002CF03DC02DF03EC02EF0050E0AD0FFFF11
:10229000D8902E322D322C322B322A32293228324B
:1022A0002732FFFFE82EF3D727C037F028C038F0D9
:1022B00029C039F02AC03AF02BC03BF02CC03CF0CA
:1022C0002DC03DF02EC03EF0FFFF40BE22D040505A
:1022D00004E1020E3F5CD8A01CD0375038103910F2
:1022E0003A103B103C103D103E10D8A450D734BEDD
:1022F00005D0345002E13304D8B049D7FFFF36BED1
:1023000008D0365003E13504D8A003D0000195B3BE
:102310003ED7FFFF000195A916D03F06D8A0400682
:102320009B0E3F24D96E000E4020DA6E26C0DFFFE0
:102330003F06D8A040069B0E3F24D96E000E4020D9
:10234000DA6E300EDF6EFFFF1CC011F01DC012F000
:102350009B0E3F24136E000E4020146E35C015F006
:1023600036C016F068EC19F011C01CF012C01DF058
:102370001200FFFFFFFF000194AF959394BF05D0BB
:10238000945109E19305D8B006D0FFFF000E2F6EDF
:10239000010E2E6E05D0FFFF93C02EF094C02FF0DB
:1023A000FFFF91C030F092C031F01EC032F01FC06C
:1023B00033F020C034F021C035F022C036F023C005
:1023C00037F024C038F025C039F0000E3B6E1F0EE8
:1023D0003A6E000EBA6F77D0FFFF3A06D8A03B06E0
:1023E0009B0E3A24D96E000E3B20DA6E32C001F00B
:1023F00033C002F034C003F035C004F036C005F03D
:1024000037C006F038C007F039C008F00A0E096E70
:10241000000E0A6E000E0B6E000E0C6E000E0D6E9E
:10242000000E0E6E000E0F6E000E106EB4EC18F063
:1024300001C026F002C027F003C028F004C029F034
:1024400005C02AF006C02BF007C02CF008C02DF004
:102450002650300FDF6E2E06D8A02F063006D8A0EB
:10246000310632C001F033C002F034C003F035C091
:1024700004F036C005F037C006F038C007F039C0A8
:1024800008F00A0E096E000E0A6E000E0B6E000EAA
:102490000C6E000E0D6E000E0E6E000E0F6E000E16
:1024A000106EB5EC16F001C032F002C033F003C07C
:1024B00034F004C035F005C036F006C037F007C070
:1024C00038F008C039F0FFFF3A503B10D8B41CD0A8
:1024D0003250331034103510361037103810391090
:1024E000D8A47AD72FBE05D02F5002E12E04D8B041
:1024F00073D7FFFF31BE08D0315003E13004D8A0BC
:1025000003D0000195B368D7FFFF1CC011F01DC0B8
:1025100012F09B0E3A24136E000E3B20146E30C056
:1025200015F031C016F068EC19F011C01CF012C0A3
:102530001DF01200FFFFFFFF000194AF959394BFC1
:1025400005D0945109E19305D8B006D0FFFF000EE5
:102550002F6E010E2E6E05D0FFFF93C02EF094C09B
:102560002FF0FFFF91C032F092C033F01EC034F064
:102570001FC035F020C036F021C037F022C038F03F
:1025800023C039F024C03AF025C03BF0000E3D6E68
:102590001F0E3C6E000EBA6F000E316E000E306ED4
:1025A00046D0FFFF3C06D8A03D06070E3414306E1F
:1025B000316A9B0E3C24D96E000E3D20DA6E3050FD
:1025C000300FDF6E2E06D8A02F063206D8A03306B5
:1025D00034C026F035C027F036C028F037C029F0C7
:1025E00038C02AF039C02BF03AC02CF03BC02DF097
:1025F000040E0AD0FFFFD8902D322C322B322A3213
:102600002932283227322632FFFFE82EF3D726C0A0
:1026100034F027C035F028C036F029C037F02AC082
:1026200038F02BC039F02CC03AF02DC03BF0FFFF42
:102630003DBE21D03D5003E13C04D8A01CD0345015
:10264000351036103710381039103A103B10D8A416
:10265000A8D72FBE05D02F50A4E12E04D8B0A1D703
:10266000FFFF33BE08D0335003E13204D8A003D0BB
:10267000000195B396D7FFFF000195A912D0305005
:102680003110D8B40ED03C06D8A03D069B0E3C2499
:10269000D96E000E3D20DA6E300EDF6E3206D8A005
:1026A0003306FFFF1CC011F01DC012F09B0E3C242E
:1026B000136E000E3D20146E32C015F033C016F0BC
:1026C00068EC19F011C01CF012C01DF01200FFFFE1
:1026D000FFFF000E166E000E156E000E0F6E000E40
:1026E0000E6E03D0FFFF084A092AFFFF010E146E89
:1026F00008C0F6FF09C0F7FF0800FFFFF550200AE9
:10270000D8B419D0F70E0A6EFF0E0B6E08C0F6FF94
:1027100009C0F7FF0800FFFFF5500C6E0D6A0A5064
:102720000C260B500D220D5004E1050E0C5CD8A0B8
:1027300002D0000E146EFFFF14C010F0116A10508A
:102740001110D8B40AD0CED7FFFF000E0F6E010EC5
:102750000E6EFFFF084A092A32D0FFFF08C0F6FFBD
:1027600009C0F7FF0800FFFFF5500A6E0B6A0B5017
:10277000000AD8A424D00A502B0AD8B4EAD7060AF3
:10278000D8B4E2D71CD0FFFF15C001F016C002F08C
:10279000000E046E0A0E036E52EC1CF008C0F6FF29
:1027A00009C0F7FF0800FFFFF550015E000E025A56
:1027B000300E0124156E000E0220166ECAD7FFFFE0
:1027C000D00E0A6EFF0E0B6E08C0F6FF09C0F7FFB1
:1027D0000800FFFFF5500C6E0D6A0A500C260B50D6
:1027E0000D220D5006E10A0E0C5CD8B002D0010E8D
:1027F00002D0FFFF000EFFFF126E136A125013107B
:10280000D8A4C1D70E500F10D8A40DD015C00AF00F
:1028100016C00BF00A1E0B1E0A4A0B2A0AC008F04B
:102820000BC009F005D0FFFF15C008F016C009F075
:10283000FFFF1200FFFFFFFF000E126E10AE12D05E
:10284000101E0F1E0E1E0D1E0C1E0B1E0A1E096CE6
:10285000000E0A220B220C220D220E220F22102221
:10286000010E126EFFFF08AE12D0081E071E061ED4
:10287000051E041E031E021E016C000E022203220E
:1028800004220522062207220822010E121AFFFF47
:1028900020EE13F0070EDE6AE806FDE209500A108A
:1028A0000B100C100D100E100F101010D8B44AD0D1
:1028B000010E116E0BD0FFFFD89009360A360B3689
:1028C0000C360D360E360F361036112AFFFF10AEBD
:1028D000F2D7FFFFD8901336143615361636173652
:1028E000183619361A360950015C0A5002580B5036
:1028F00003580C5004580D5005580E5006580F50F0
:10290000075810500858D8A011D00950015E0A503D
:10291000025A0B50035A0C50045A0D50055A0E50CF
:10292000065A0F50075A1050085A1380FFFFD890CC
:1029300010320F320E320D320C320B320A320932A3
:10294000112EC7D7FFFF1250D8B410D01A1E191E6F
:10295000181E171E161E151E141E136C000E1422B0
:10296000152216221722182219221A22FFFF13C03D
:1029700001F014C002F015C003F016C004F017C037
:1029800005F018C006F019C007F01AC008F01200D0
:10299000FFFFFFFF096E0950D8A404AE1AD001C092
:1029A00005F002C006F003C007F004C008F0051EE1
:1029B000061E071E081E052A000E062207220822F0
:1029C00005C00BF006C00CF007C00DF008C00EF0FB
:1029D00009D0FFFF01C00BF002C00CF003C00DF0E6
:1029E00004C00EF0FFFF0150021003100410D8A421
:1029F00009D0000E016E000E026E000E036E000E76
:102A0000046E72D0FFFF960E0A6E07D0FFFF0A2AEF
:102A1000D8900E320D320C320B32FFFF000E0B1429
:102A2000056E000E0C14066E000E0D14076EFE0EE1
:102A30000E14086E0550061007100810D8B40ED0FA
:102A4000E5D7FFFF0A2A010E0B26000E0C220D22ED
:102A50000E22D8900E320D320C320B32FFFF000ED8
:102A60000B14056E000E0C14066E000E0D14076E8E
:102A7000FF0E0E14086E0550061007100810D8B48B
:102A800008D0DFD7FFFF0A06D8900B360C360D367C
:102A90000E36FFFF0DBE03D0020E0A60F3D7FFFF14
:102AA0000AA00D9ED8900A320AC005F0066A076A8D
:102AB000086A05C008F0076A066A056A05500B1225
:102AC00006500C1207500D1208500E120950D8A4CF
:102AD00004AE01D00E8EFFFF0BC001F00CC002F05F
:102AE0000DC003F00EC004F0FFFF1200FFFFFFFF58
:102AF00020EEE5F010EE0FF0060EDBCFE3FFE80668
:102B0000FCE20CC01AF00DC01BF01A501B10D8A428
:102B100004D00F0E1A6E000E1B6EFFFF1AC001F0DC
:102B20001BC002F039EC1CF001C01EF002C01FF007
:102B300093C01CF094C01DF01DBE0ED01E501C5C36
:102B40001D50800A0E6E1F50800A0E58D8B004D057
:102B50001CC01EF01DC01FF0FFFF1EC01CF01FC0D8
:102B60001DF091C018F092C019F0000195A10ED08F
:102B700018D0FFFF000E026E200E016E0AC003F097
:102B80000BC004F012EC19F01E4A1F2AFFFF185068
:102B90001E5C1F50800A0E6E1950800A0E58D8A075
:102BA000E8D7FFFF000E176E000E166E14D0FFFF61
:102BB0001AC0D9FF1BC0DAFFDF500E6E0E50016E37
:102BC000026A0AC003F00BC004F012EC19F01A4AB2
:102BD0001B2A164A172AFFFF1C50165C1750800A42
:102BE0000E6E1D50800A0E58D8A0E1D7000195B195
:102BF0000ED018D0FFFF000E026E200E016E0AC02C
:102C000003F00BC004F012EC19F01E4A1F2AFFFF5C
:102C100018501E5C1F50800A0E6E1950800A0E5804
:102C2000D8A0E8D7FFFF1EC00AF01FC00BF01200AB
:102C3000FFFFFFFF000E126E08AE12D0081E071E27
:102C4000061E051E041E031E021E016C000E02223B
:102C5000032204220522062207220822010E126EF8
:102C6000FFFF10AE10D0101E0F1E0E1E0D1E0C1EEC
:102C70000B1E0A1E096C000E0A220B220C220D22CA
:102C80000E220F221022FFFF09500A100B100C1009
:102C90000D100E100F101010D8B440D0010E116E90
:102CA0000BD0FFFFD89009360A360B360C360D369E
:102CB0000E360F361036112AFFFF10AEF2D7FFFF87
:102CC0000950015C0A5002580B5003580C5004582C
:102CD0000D5005580E5006580F5007581050085800
:102CE000D8A010D00950015E0A50025A0B50035A66
:102CF0000C50045A0D50055A0E50065A0F50075AE0
:102D00001050085AFFFFD89010320F320E320D3299
:102D10000C320B320A320932112ED1D7FFFF12507A
:102D2000D8B410D0081E071E061E051E041E031E62
:102D3000021E016C000E022203220422052206223A
:102D400007220822FFFF01C001F002C002F003C009
:102D500003F004C004F005C005F006C006F007C08B
:102D600007F008C008F01200FFFFFFFF20EE11F08F
:102D7000070EDE6AE806FDE209500A100B100C107F
:102D80000D100E100F101010D8B44AD0010E196E8D
:102D90000BD0FFFFD89009360A360B360C360D36AD
:102DA0000E360F361036192AFFFF10AEF2D7FFFF8E
:102DB000D8901136123613361436153616361736A5
:102DC00018360950015C0A5002580B5003580C5039
:102DD00004580D5005580E5006580F500758105003
:102DE0000858D8A011D00950015E0A50025A0B5061
:102DF000035A0C50045A0D50055A0E50065A0F50E3
:102E0000075A1050085A1180FFFFD89010320F3225
:102E10000E320D320C320B320A320932192EC7D75C
:102E2000FFFF11C001F012C002F013C003F014C084
:102E300004F015C005F016C006F017C007F018C062
:102E400008F01200FFFFFFFF40344134476E475047
:102E5000D8A40AD0FFFF000E3E6E000E3F6E000E9B
:102E6000406E000E416E56D0FFFF3EC042F03FC0A4
:102E700043F040C044F041C045F0200E06D0FFFFB3
:102E8000D8904532443243324232FFFFE82EF7D722
:102E90004250466E408EFF0E3E16FF0E3F16FF0E4E
:102EA0004016000E4116960E475E47AE0ED04750B4
:102EB000800A970FD8A0CED7FFFFD890413240327A
:102EC0003F323E32473EF8D710D0FFFF1F0E476417
:102ED00008D0C0D7FFFFD8903E363F364036413647
:102EE0004706FFFF4750D8A4F5D7FFFF4650D8B498
:102EF00008D0411E401E3F1E3E6C000E3F22402265
:102F00004122FFFF3EC03EF03FC03FF040C040F0D6
:102F100041C041F0FFFF1200FFFFFFFFC8EC1CF0B3
:102F2000C1909280000EB3EC1AF001C03CF002C0D8
:102F30003DF03CC001F03DC002F0036A046A000E9F
:102F4000C9EC14F001C00FF002C010F003C011F082
:102F500004C012F09F0E136EAB0E146EAD0E156E04
:102F60003B0E166EF6EC0BF00FC034F010C035F0CF
:102F700011C036F012C037F0000E286E000E296E18
:102F8000480E2A6E430E2B6E000E136E000E146E4A
:102F90000C0E156E420E166E34C00FF035C010F0D8
:102FA00036C011F037C012F0F6EC0BF00FC02CF069
:102FB00010C02DF011C02EF012C02FF0DDEC1AF071
:102FC00028C038F029C039F02AC03AF02BC03BF0B5
:102FD00038C030F039C031F03AC032F03BC033F085
:102FE0001200FFFFFFFF8BEC1CF0000E0001E26FF0
:102FF000000EE16F67EC1CF0D4EC1CF097EC1CF0B9
:10300000A1EC1CF0948E949C8DEC17F030C03EF037
:1030100031C03FF032C040F033C041F023EC17F034
:103020003EC0E3F03FC0E4F00001E14BE22B949E90
:10303000E3C07AF0E4C07BF0000E7BBEFF0E7C6E36
:103040007D6E02EC1BF07AC0DBF07BC0DCF048EC5C
:103050001BF0ABEC1CF00001E4BF06D0E4510BE127
:103060001E0EE35DD8B007D0FFFF030E016EFF0E0A
:103070007AEC1CF006D0FFFF000E016E000E7AEC19
:103080001CF0FFFF030E0001E06FDB0EDF6FFB0E95
:10309000FFFFE82EFDD7DF2FFBD7E02FF9D700D0B9
:1030A00000F01AEF00F0FFFF01C008F002C009F0C5
:1030B00003C00AF004C00BF00506D8A006060528D8
:1030C00010E10628D8A40DD0000E026E000E016E8D
:1030D00048D0FFFF084A092A0A4A0B2A0506D8A049
:1030E0000606FFFF08C0F6FF09C0F7FF0800FFFF54
:1030F000F5500009D8B420D00AC0F6FF0BC0F7FF86
:103100000800FFFFF5500009D8B416D0055006108E
:10311000D8B412D008C0F6FF09C0F7FF0800FFFFBF
:10312000F5CF07F00AC0F6FF0BC0F7FF0800FFFF5E
:10313000F5500718D8B4CDD7FFFF08C0F6FF09C077
:10314000F7FF0800FFFFF5CF07F00AC0F6FF0BC03E
:10315000F7FF0800FFFFF550075C016E026AD8A078
:103160000206FFFF1200FFFFFFFF09500A100B10BD
:103170000C100D100E100F101010D8B440D0010E0E
:10318000116E0BD0FFFFD89009360A360B360C367D
:103190000D360E360F361036112AFFFF10AEF2D75D
:1031A000FFFF0950015C0A5002580B5003580C50A5
:1031B00004580D5005580E5006580F50075810501F
:1031C0000858D8A010D00950015E0A50025A0B507E
:1031D000035A0C50045A0D50055A0E50065A0F50FF
:1031E000075A1050085AFFFFD89010320F320E3293
:1031F0000D320C320B320A320932112ED1D7FFFFB9
:1032000001C001F002C002F003C003F004C004F0EA
:1032100005C005F006C006F007C007F008C008F0BA
:103220001200FFFFFFFF03500410D8B404D0035076
:103230000410D8A405D0FFFF0150E0EC1CF045D0ED
:10324000FFFF20EE04F00350D9260450DA22DE50AE
:10325000DE10D8B416D020EE04F00350D926045066
:10326000DA2210EE02F00350E1260450E222DE5092
:10327000E65CE650800A096EDE50800A0958D8B034
:1032800024D0FFFF20EE02F00350D9260450DA22AA
:10329000DECF05F0DDCF06F003C0D9FF04C0DAFFB2
:1032A000DECF07F0DDCF08F005500724D96E0650B9
:1032B0000820DA6E01C0DFFF20EE02F00350D926AD
:1032C0000450DA22DE2A000EDD22FFFF1200FFFF8B
:1032D000FFFF000195A10AD013C00AF014C00BF043
:1032E00011C00CF012C00DF06AEC1BF0FFFF16BE0F
:1032F00005D015C01AF016C01BF005D0FFFF000E58
:103300001B6E000E1A6EFFFF000E196E000E186E77
:103310000DD0FFFF000E026E200E016E11C003F0F3
:1033200012C004F012EC19F0184A192AFFFF1A50C3
:10333000185C1950800A176E1B50800A1758D8A0C5
:10334000E8D7000195B10AD013C00AF014C00BF001
:1033500011C00CF012C00DF06AEC1BF0FFFF13C09F
:1033600001F014C002F039EC1CF01A500124116E67
:103370001B500220126E1200FFFFFFFF03500410CB
:10338000D8A412D07E50D8B407D0000E0B6E000E19
:103390000A6E000E7E6E2FD0FFFFCFEC1CF001C036
:1033A0000AF002C00BF027D0FFFF20EE02F003501E
:1033B000D9260450DA22DECF05F0DDCF06F003C0B7
:1033C000D9FF04C0DAFFDECF07F0DDCF08F00550EB
:1033D0000724D96E06500820DA6EDF50096E0950B6
:1033E0000A6E0B6A20EE02F00350D9260450DA224E
:1033F000DE2A000EDD22FFFF0AC003F00BC004F03E
:103400001200FFFFFFFF74C078F075C079F0000E66
:103410000001906F000E8F6F14D0FFFF72C043F059
:1034200073C044F0780E456E000E466E76C047F0CD
:1034300077C048F026EC03F0435000018F2744503A
:103440009023FFFF78C0F6FF79C0F7FF0800FFFF69
:10345000F5500009D8A4E1D78FC072F090C073F086
:103460001200FFFFFFFFBF0E0001CB6F000ECC6FFD
:10347000BBC0C5F0BCC0C6F0000EC86F000EC76F61
:10348000000ECA6F000EC96FC50E726E000E736E0D
:10349000BDC074F0BEC075F0CB0E766E000E776EB8
:1034A00002EC1AF00001C751BB25D96EC851BC21EE
:1034B000DA6E000EDF6E1200FFFFFFFF9F0E096E37
:1034C000FF0E0A6E07C00BF008C00CF009500B2667
:1034D0000A500C220C5006E11A0E0B5CD8B002D038
:1034E000010E02D0FFFF000EFFFF0D6E0E6A0D50A1
:1034F0000E10D8B405D05F0E0714076E086A05D009
:10350000FFFF07C007F008C008F0FFFF1200FFFF31
:10351000FFFF000191519211D8A405D091C01FF076
:1035200092C020F007D0FFFFFF0E91251F6EFF0E07
:103530009221206EFFFF1EC09BF0000E9C6F1CC0EE
:1035400011F01DC012F09B0E136E000E146E1FC002
:1035500015F020C016F068EC19F011C01CF012C074
:103560001DF01200FFFFFFFF056E070E056405D07A
:10357000000E026E000E016E1DD0FFFFC50EC216BA
:103580000538E842F80BC212080E036ECB0EFFFF9F
:10359000E82EFDD7032EFBD700D0C284FFFFC2B4B4
:1035A000FDD7C450046E036AC3500324016E000E9D
:1035B0000420026EFFFF1200FFFFFFFF000E2C1A17
:1035C000000E2D1A000E2E1A800E2F1A28C001F0A0
:1035D00029C002F02AC003F02BC004F02CC005F073
:1035E0002DC006F02EC007F02FC008F0B7EC0DF08C
:1035F00001C028F002C029F003C02AF004C02BF05B
:103600001200FFFFFFFF7AC0D7F07BC0D8F07CC06C
:10361000D9F07DC0DAF0CD0E0001BB6F000EBC6F9B
:103620001D0EBD6F060EBE6FD7C0BFF0D8C0C0F074
:10363000D9C0C1F0DAC0C2F032EC1AF0BFEC1CF015
:10364000CD0E7A6E000E7B6E1200FFFFFFFF010EA3
:10365000076E200E01180210D8B414D0F70E036EB6
:10366000FF0E046E01C005F002C006F003500526EF
:1036700004500622065004E1050E055CD8A002D0D5
:10368000000E076EFFFF07C001F0026A1200FFFF85
:10369000FFFF949E000E0001DE6F000EDD6F0DD067
:1036A000FFFFDD51DB25D96EDE51DC21DA6EDF5004
:1036B000B5EC1CF00001DD4BDE2BFFFFDD51DB25FF
:1036C000D96EDE51DC21DA6EDF50D8B41200FFFF74
:1036D000E7D7FFFFFFFF000E106E000E0F6E0CD03D
:1036E000FFFF0EC001F0026A0CC003F00DC004F031
:1036F00012EC19F00F4A102AFFFF0F500A24D96E5E
:1037000010500B20DA6EDF500E6E0E50D8B412003F
:10371000FFFFE6D7FFFFB80EF66E390EF76E000E0C
:10372000F86E00EEE5F010EE07F00900F5CFEEFFC1
:10373000E550E150FAE100EE80F03B0EEE6AE8065B
:10374000FDE17E6A7F907F92000EF86E0001F2EF3D
:1037500017F0FFFF9F0E036EFF0E046E200E011088
:10376000056E000E0210066E035005260450062258
:10377000065006E11A0E055CD8B002D0010E02D048
:10378000FFFF000EFFFF016E026A1200FFFFFFFF46
:1037900014BE05D0145011E11304D8B00ED0FFFFB1
:1037A00013C015F014C016F0151E161E154A162A61
:1037B00015C013F016C014F005D0FFFF13C013F0AE
:1037C00014C014F0FFFF1200FFFFFFFF9F0E036EF7
:1037D000FF0E046E01C005F002C006F0035005267E
:1037E00004500622065006E11A0E055CD8B002D03D
:1037F000010E02D0FFFF000EFFFF016E026A1200F1
:10380000FFFFFFFFBF0E036EFF0E046E01C005F049
:1038100002C006F00350052604500622065006E1B9
:103820001A0E055CD8B002D0010E02D0FFFF000EC8
:10383000FFFF016E026A1200FFFFFFFFD00E036E52
:10384000FF0E046E01C005F002C006F0035005260D
:1038500004500622065006E10A0E055CD8B002D0DC
:10386000010E02D0FFFF000EFFFF016E026A120080
:10387000FFFFFFFF01C003F002C004F003D0FFFF11
:10388000014A022AFFFF01C0D9FF02C0DAFFDF5060
:10389000D8A4F5D70350015C016E04500258026EA3
:1038A0001200FFFFFFFF01500302F3CF05F0F4CF3A
:1038B00006F001500402F350062602500302F350B2
:1038C000062605C001F006C002F01200FFFFFFFF50
:1038D000000E0001896F000E8A6F000E8B6F000EC4
:1038E0008C6FD59CD768340ED66EF294000ED56ED0
:1038F0001200FFFFFFFF026E02C0BEFF000E036E4C
:10390000015003120338F00B036EBD50CF0B0310B0
:10391000BD6E1200FFFFFFFFCB68BE68300EBD1208
:10392000060ECA6E0C0EBD1294941200FFFFFFFF2C
:10393000AC8CAC8AAC98AC94AC80190EAF6E120013
:10394000FFFFFFFF000EAB6EAB8EAB8CAB88AB9670
:10395000AB801200FFFFFFFF949E0A0EB5EC1CF037
:103960000D0EB5EC1CF01200FFFFFFFF016E949EE0
:10397000FFFFACA2FDD701C0ADFF1200FFFFFFFFAC
:10398000000E036E000E046EBDEC19F01200FFFF76
:10399000FFFF810EC26E800EC16E1200FFFFFFFF9F
:1039A000016802681200FFFFFFFFD58E1200FFFFC3
:0F39B000FFFFD58E1200FFFF286E756C6C29008B
:0839C000FFFF1200FFFFFFFFF3
:020000040020DA
:08000000FFFFFFFFFFFFFFFF00
:020000040030CA
:0E000000FF270F0EFF0185FF0FC00FE00F401E
:00000001FF
