:020000040000FA
:0400000007EF00F016
:0A0008007F8225ED1CF0B5EF1BF020
:100600000068685800686864006868690068686E17
:100610000068686F006868750068687800256C7508
:10062000006C58007A58006C64007A64006C6900B1
:100630007A69006C6E007A6E006C6F007A6F007AD7
:1006400075006C78007A78002564000045C0D9FFF9
:1006500046C0DAFFDECFF6FFDDCFF7FF0800F5502A
:10066000250AD8A45CEF0BF045C0D9FF46C0DAFFDD
:10067000DE2A000EDD22000E00018E6F000E8D6F4F
:100680008DC091F08EC092F08F699069000E5A6E05
:10069000000E19D00001918145C0D9FF46C0DAFF94
:1006A000DE2A000EDD2232D000019183F5D7000151
:1006B0009185F2D700019187EFD700019189ECD79E
:1006C000000E5A6E010E596E21D045C0D9FF46C0AA
:1006D000DAFFDECFF6FFDDCFF7FF0800F550496EF9
:1006E0004A6A4A50000AD8A4EBD74950200AD8B425
:1006F000E1D7030AD8B4E1D7080AD8B4D8D7060A94
:10070000D8B4C8D71D0AD8B4CFD7DAD759505A10A1
:10071000D8B4DBD7000191B1919345C0D9FF46C051
:10072000DAFFDECFF6FFDDCFF7FF0800F5502A0A2B
:10073000D8A423D045C0D9FF46C0DAFFDE2A000E78
:10074000DD2247C0D9FF48C0DAFFDFCF49F0020EF3
:10075000DE26DFCF4AF0000EDD2249C0D9FF4AC0B5
:10076000DAFFDECF8DF0DDCF8EF08EAF3FD09181FE
:100770008D6D8E1FD8B08E2B39D045C0D9FF46C0A5
:10078000DAFFDECF08F0DDCF09F061EC14F008C02D
:100790008DF009C08EF007D045C0D9FF46C0DAFF02
:1007A000DE2A000EDD22D00E496EFF0E4A6E45C0D5
:1007B000D9FF46C0DAFFDECFF6FFDDCFF7FF080036
:1007C000F5504B6E4C6A49504B264A504C224C50C7
:1007D00006E10A0E4B5CD8B002D0010E01D0000E2B
:1007E0005B6E5C6A5B505C10D8A4D6D745C0D9FF5D
:1007F00046C0DAFFDECFF6FFDDCFF7FF0800F55089
:100800002E0AD8A46ED0000E0001906F000E8F6FDC
:1008100045C0D9FF46C0DAFFDE2A000EDD2245C002
:10082000D9FF46C0DAFFDECFF6FFDDCFF7FF0800C5
:10083000F5502A0AD8A41CD045C0D9FF46C0DAFF1B
:10084000DE2A000EDD2247C0D9FF48C0DAFFDFCF25
:1008500049F0020EDE26DFCF4AF0000EDD2249C04D
:10086000D9FF4AC0DAFFDECF8FF0DDCF90F039D06C
:1008700045C0D9FF46C0DAFFDECF08F0DDCF09F072
:1008800061EC14F008C08FF009C090F007D045C0AB
:10089000D9FF46C0DAFFDE2A000EDD22D00E496EF7
:1008A000FF0E4A6E45C0D9FF46C0DAFFDECFF6FF25
:1008B000DDCFF7FF0800F5504B6E4C6A49504B26D0
:1008C0004A504C224C5006E10A0E4B5CD8B002D084
:1008D000010E01D0000E5D6E5E6A5D505E10D8A400
:1008E000D6D745C0D9FF46C0DAFFDECFF6FFDDCF51
:1008F000F7FF0800F550630AD8A426D045C0D9FFF9
:1009000046C0DAFFDE2A000EDD2247C0D9FF48C00C
:10091000DAFFDFCF49F0020EDE26DFCF4AF0000E0D
:10092000DD2249C0D9FF4AC0DAFFDF50696E43C0FB
:100930001CF044C01DF069C01EF0E2EC1AF01CC0AF
:1009400043F01DC044F0120045C0D9FF46C0DAFF95
:10095000DECF01F0DDCF02F0050E036E060E046E51
:10096000000E066E030E056ED7EC18F00150021053
:10097000D8B416D045C0D9FF46C0DAFFDECF01F0AB
:10098000DDCF02F0090E036E060E046E000E066E39
:10099000030E056ED7EC18F001500210D8A43FD01A
:1009A000030E45C0D9FF46C0DAFFDE26000EDD2269
:1009B00047C0D9FF48C0DAFFDFCF49F0020EDE267C
:1009C000DFCF4AF0000EDD2249C0D9FF4AC0DAFF6E
:1009D000DF505F6E000E5FBEFF0E606E616E626E76
:1009E000636E646E656E666E43C01CF044C01DF09D
:1009F0005FC01EF060C01FF061C020F062C021F037
:100A000063C022F064C023F065C024F066C025F006
:100A1000E9EC0FF01CC043F01DC044F0120045C0CB
:100A2000D9FF46C0DAFFDECF01F0DDCF02F0060EBF
:100A3000036E060E046E000E066E020E056ED7ECF7
:100A400018F001500210D8B416D045C0D9FF46C0E6
:100A5000DAFFDECF01F0DDCF02F00A0E036E060EE4
:100A6000046E000E066E020E056ED7EC18F00150F3
:100A70000210D8A407D0020E45C0D9FF46C0DAFF45
:100A8000DE261FD045C0D9FF46C0DAFFDECFF6FF15
:100A9000DDCFF7FF0800F550640AD8B40DD045C08B
:100AA000D9FF46C0DAFFDECFF6FFDDCFF7FF080043
:100AB000F550690AD8A41FD045C0D9FF46C0DAFF57
:100AC000DE2A000EDD2247C0D9FF48C0DAFFDFCFA3
:100AD00049F0020EDE26DFCF4AF0000EDD2249C0CB
:100AE000D9FF4AC0DAFFDECF5FF0DDCF60F0000E45
:100AF00060BEFF0E73D745C0D9FF46C0DAFFDECF18
:100B000001F0DDCF02F0270E036E060E046E000E1C
:100B1000066E020E056ED7EC18F001500210D8B424
:100B200016D045C0D9FF46C0DAFFDECF01F0DDCFD9
:100B300002F02D0E036E060E046E000E066E020EFF
:100B4000056ED7EC18F001500210D8A442D0020E66
:100B500045C0D9FF46C0DAFFDE26000EDD2247C0C1
:100B6000D9FF48C0DAFFDFCF49F0040EDE26DFCF21
:100B70004AF0000EDD2249C0D9FF4AC0DAFFDECFBD
:100B80004BF0DECF4CF0DECF4DF0DECF4EF04BC061
:100B90004FF04CC050F04DC051F04EC052F0536A6F
:100BA00052BE536853C054F053C055F053C056F072
:100BB0004FC05FF050C060F051C061F052C062F0B1
:100BC00053C063F054C064F055C065F056C066F081
:100BD0000BD745C0D9FF46C0DAFFDECF01F0DDCF2D
:100BE00002F02A0E036E060E046E000E066E020E52
:100BF000056ED7EC18F001500210D8B416D045C0DD
:100C0000D9FF46C0DAFFDECF01F0DDCF02F0300EB3
:100C1000036E060E046E000E066E020E056ED7EC15
:100C200018F001500210D8A427D0020E45C0D9FFF9
:100C300046C0DAFFDE26000EDD2247C0D9FF48C0DD
:100C4000DAFFDFCF49F0020EDE26DFCF4AF0000EDA
:100C5000DD2249C0D9FF4AC0DAFFDECF4BF0DDCF3D
:100C60004CF04BC05FF04CC060F0616A626A636A2E
:100C7000646A656A666AB8D645C0D9FF46C0DAFFBD
:100C8000DECF01F0DDCF02F0110E036E060E046E12
:100C9000000E066E030E056ED7EC18F00150021020
:100CA000D8A43ED0030E45C0D9FF46C0DAFFDE26E9
:100CB000000EDD2247C0D9FF48C0DAFFDFCF49F080
:100CC000020EDE26DFCF4AF0000EDD2249C0D9FF3A
:100CD0004AC0DAFFDF504B6E4B506A6E6B6A6C6A2B
:100CE0006D6A6E6A6F6A706A716A43C01CF044C0B4
:100CF0001DF06AC01EF06BC01FF06CC020F06DC00C
:100D000021F06EC022F06FC023F070C024F071C0DB
:100D100025F0FCEC12F01CC043F01DC044F01200A2
:100D200045C0D9FF46C0DAFFDECF01F0DDCF02F0CB
:100D3000120E036E060E046E000E066E020E056E97
:100D4000D7EC18F001500210D8B468D045C0D9FFD4
:100D500046C0DAFFDECFF6FFDDCFF7FF0800F55023
:100D60006F0AD8A406D045C0D9FF46C0DAFFDE2AF4
:100D70005BD045C0D9FF46C0DAFFDECF01F0DDCF42
:100D800002F0390E036E060E046E000E066E020EA1
:100D9000056ED7EC18F001500210D8A429D0020E2D
:100DA00045C0D9FF46C0DAFFDE26000EDD2247C06F
:100DB000D9FF48C0DAFFDFCF49F0040EDE26DFCFCF
:100DC0004AF0000EDD2249C0D9FF4AC0DAFFDECF6B
:100DD0004BF0DECF4CF0DECF4DF0DECF4EF04B507F
:100DE0006A6E4C506B6E4D506C6E4E506D6E79D776
:100DF00045C0D9FF46C0DAFFDECF01F0DDCF02F0FB
:100E00003C0E036E060E046E000E066E020E056E9C
:100E1000D7EC18F001500210D8A421D0020E45C022
:100E2000D9FF46C0DAFFDE26000EDD2247C0D9FF1B
:100E300048C0DAFFDFCF49F0020EDE26DFCF4AF0EE
:100E4000000EDD2249C0D9FF4AC0DAFFDECF4BF0E9
:100E5000DDCF4CF04BC06AF04CC06BF040D745C0C2
:100E6000D9FF46C0DAFFDECF01F0DDCF02F00D0E74
:100E7000036E060E046E000E066E030E056ED7ECB2
:100E800018F001500210D8A427D0030E45C0D9FF96
:100E900046C0DAFFDE26000EDD2247C0D9FF48C07B
:100EA000DAFFDFCF49F0020EDE26DFCF4AF0000E78
:100EB000DD2249C0D9FF4AC0DAFFDECF67F0DDCFBF
:100EC00068F067C0D9FF68C0DAFF8BC0DFFF000E93
:100ED000446E000E436E120045C0D9FF46C0DAFFD3
:100EE000DECF01F0DDCF02F00E0E036E060E046EB3
:100EF000000E066E020E056ED7EC18F001500210BF
:100F0000D8A40AD07AD067C0D9FF68C0DAFF8BC0F6
:100F1000DEFF8CC0DDFFDBD745C0D9FF46C0DAFF5E
:100F2000DECFF6FFDDCFF7FF0800F5506E0AD8A43C
:100F300006D045C0D9FF46C0DAFFDE2A64D045C0DE
:100F4000D9FF46C0DAFFDECF01F0DDCF02F0330E6D
:100F5000036E060E046E000E066E020E056ED7ECD2
:100F600018F001500210D8A432D0020E45C0D9FFAB
:100F700046C0DAFFDE26000EDD2247C0D9FF48C09A
:100F8000DAFFDFCF49F0020EDE26DFCF4AF0000E97
:100F9000DD2249C0D9FF4AC0DAFFDECF67F0DDCFDE
:100FA00068F08BC049F08CC04AF0000E4ABEFF0EBC
:100FB0004B6E4C6E67C0D9FF68C0DAFF49C0DEFFD8
:100FC0004AC0DEFF4BC0DEFF4CC0DEFF80D745C00D
:100FD000D9FF46C0DAFFDECF01F0DDCF02F0360EDA
:100FE000036E060E046E000E066E020E056ED7EC42
:100FF00018F001500210D8A41DD0020E45C0D9FF30
:1010000046C0DAFFDE26000EDD2247C0D9FF48C009
:10101000DAFFDFCF49F0020EDE26DFCF4AF0000E06
:10102000DD2249C0D9FF4AC0DAFFDECF67F0DDCF4D
:1010300068F069D745C0D9FF46C0DAFFDECFF6FFBA
:10104000DDCFF7FF0800F550700AD8A442D045C0A4
:10105000D9FF46C0DAFFDE2A000EDD2247C0D9FFE5
:1010600048C0DAFFDFCF49F0020EDE26DFCF4AF0BC
:10107000000EDD2249C0D9FF4AC0DAFFDECF4BF0B7
:10108000DDCF4CF04BC06AF04CC06BF06C6A6D6AFF
:101090006E6A6F6A706A716A43C01CF044C01DF0CA
:1010A0006AC01EF06BC01FF06CC020F06DC021F054
:1010B0006EC022F06FC023F070C024F071C025F024
:1010C000780E266E0CEC11F01CC043F01DC044F0ED
:1010D000120045C0D9FF46C0DAFFDECFF6FFDDCFF4
:1010E000F7FF0800F550730AD8A42AD045C0D9FFED
:1010F00046C0DAFFDE2A000EDD2247C0D9FF48C015
:10110000DAFFDFCF49F0020EDE26DFCF4AF0000E15
:10111000DD2249C0D9FF4AC0DAFFDECF57F0DDCF6C
:1011200058F043C00AF044C00BF057C00CF058C050
:101130000DF0A1EC15F00AC043F00BC044F0120012
:1011400045C0D9FF46C0DAFFDECF01F0DDCF02F0A7
:10115000150E036E060E046E000E066E030E056E6F
:10116000D7EC18F001500210D8A43ED0030E45C0B1
:10117000D9FF46C0DAFFDE26000EDD2247C0D9FFC8
:1011800048C0DAFFDFCF49F0020EDE26DFCF4AF09B
:10119000000EDD2249C0D9FF4AC0DAFFDF504B6E96
:1011A0004B506A6E6B6A6C6A6D6A6E6A6F6A706ABF
:1011B000716A43C01CF044C01DF06AC01EF06BC0D1
:1011C0001FF06CC020F06DC021F06EC022F06FC027
:1011D00023F070C024F071C025F024EC12F01CC084
:1011E00043F01DC044F0120045C0D9FF46C0DAFFED
:1011F000DECF01F0DDCF02F0160E036E060E046E98
:10120000000E066E020E056ED7EC18F001500210AB
:10121000D8B468D045C0D9FF46C0DAFFDECFF6FFAC
:10122000DDCFF7FF0800F550750AD8A406D045C0F9
:10123000D9FF46C0DAFFDE2A5BD045C0D9FF46C0E1
:10124000DAFFDECF01F0DDCF02F01E0E036E060ED8
:10125000046E000E066E020E056ED7EC18F00150FB
:101260000210D8A429D0020E45C0D9FF46C0DAFF2B
:10127000DE26000EDD2247C0D9FF48C0DAFFDFCFEF
:1012800049F0040EDE26DFCF4AF0000EDD2249C011
:10129000D9FF4AC0DAFFDECF4BF0DECF4CF0DECF15
:1012A0004DF0DECF4EF04B506A6E4C506B6E4D5091
:1012B0006C6E4E506D6E79D745C0D9FF46C0DAFFCF
:1012C000DECF01F0DDCF02F03F0E036E060E046E9E
:1012D000000E066E020E056ED7EC18F001500210DB
:1012E000D8A421D0020E45C0D9FF46C0DAFFDE26C1
:1012F000000EDD2247C0D9FF48C0DAFFDFCF49F03A
:10130000020EDE26DFCF4AF0000EDD2249C0D9FFF3
:101310004AC0DAFFDECF4BF0DDCF4CF04BC06AF0B5
:101320004CC06BF040D745C0D9FF46C0DAFFDECFD6
:1013300001F0DDCF02F0190E036E060E046E000EF2
:10134000066E030E056ED7EC18F001500210D8B4EB
:1013500016D045C0D9FF46C0DAFFDECF01F0DDCFA1
:1013600002F0010E036E060E046E000E066E030EF2
:10137000056ED7EC18F001500210D8A453D045C028
:10138000D9FF46C0DAFFDECF49F0DDCF4AF0020ECA
:101390004926000E4A2249C0F6FF4AC0F7FF08005E
:1013A000F5CF69F0030E45C0D9FF46C0DAFFDE264F
:1013B000000EDD2247C0D9FF48C0DAFFDFCF49F079
:1013C000020EDE26DFCF4AF0000EDD2249C0D9FF33
:1013D0004AC0DAFFDF504B6E4B506A6E6B6A6C6A24
:1013E0006D6A6E6A6F6A706A716A43C01CF044C0AD
:1013F0001DF06AC01EF06BC01FF06CC020F06DC005
:1014000021F06EC022F06FC023F070C024F071C0D4
:1014100025F069C026F00CEC11F01CC043F01DC093
:1014200044F0120045C0D9FF46C0DAFFDECF01F01C
:10143000DDCF02F01A0E036E060E046E000E066E6D
:10144000020E056ED7EC18F001500210D8B4D5D0BA
:1014500045C0D9FF46C0DAFFDECF01F0DDCF02F094
:10146000020E036E060E046E000E066E020E056E70
:10147000D7EC18F001500210D8B4BFD045C0D9FF46
:1014800046C0DAFFDECFF6FFDDCFF7FF0800F550EC
:10149000780AD8B40DD045C0D9FF46C0DAFFDECFF8
:1014A000F6FFDDCFF7FF0800F550580AD8A411D099
:1014B00045C0D9FF46C0DAFFDECFF6FFDDCFF7FF2C
:1014C0000800F5CF69F045C0D9FF46C0DAFFDE2A33
:1014D000ADD045C0D9FF46C0DAFFDECF01F0DDCF89
:1014E00002F0420E036E060E046E000E066E020E31
:1014F000056ED7EC18F001500210D8B416D045C0D4
:10150000D9FF46C0DAFFDECF01F0DDCF02F0210EB9
:10151000036E060E046E000E066E020E056ED7EC0C
:1015200018F001500210D8A43CD045C0D9FF46C0E5
:10153000DAFFDECF49F0DDCF4AF0010E4926000E7A
:101540004A2249C0F6FF4AC0F7FF0800F5CF69F00C
:10155000020E45C0D9FF46C0DAFFDE26000EDD22AE
:1015600047C0D9FF48C0DAFFDFCF49F0040EDE26BE
:10157000DFCF4AF0000EDD2249C0D9FF4AC0DAFFB2
:10158000DECF4BF0DECF4CF0DECF4DF0DECF4EF0B5
:101590004B506A6E4C506B6E4D506C6E4E506D6E73
:1015A00020D745C0D9FF46C0DAFFDECF01F0DDCF3E
:1015B00002F0450E036E060E046E000E066E020E5D
:1015C000056ED7EC18F001500210D8B416D045C003
:1015D000D9FF46C0DAFFDECF01F0DDCF02F0240EE6
:1015E000036E060E046E000E066E020E056ED7EC3C
:1015F00018F001500210D8A434D045C0D9FF46C01D
:10160000DAFFDECF49F0DDCF4AF0010E4926000EA9
:101610004A2249C0F6FF4AC0F7FF0800F5CF69F03B
:10162000020E45C0D9FF46C0DAFFDE26000EDD22DD
:1016300047C0D9FF48C0DAFFDFCF49F0020EDE26EF
:10164000DFCF4AF0000EDD2249C0D9FF4AC0DAFFE1
:10165000DECF4BF0DDCF4CF04BC06AF04CC06BF0EE
:10166000BED645C0D9FF46C0DAFFDECFF6FFDDCFDC
:10167000F7FF0800F550250AD8A416D045C0D9FFB9
:1016800046C0DAFFDE2A000EDD22000E026E250EB5
:10169000016E43C003F044C004F02CEC19F0000EBE
:1016A000446E010E436E120045C0D9FF46C0DAFFFA
:1016B000DE2A000EDD220BD445C0D9FF46C0DAFF7A
:1016C000DECFF6FFDDCFF7FF0800F550016E026AAE
:1016D00043C003F044C004F02CEC19F045C0D9FF1E
:1016E00046C0DAFFDE2A000EDD22D9D71250800B69
:1016F0001B6E12501224216E11BE21802150D8B4CD
:101700000DD02128D8A408D0000E0F6E000E106E48
:10171000000E116E000E126E118E08D0000E0F6EAC
:10172000000E106E000E116E000E126E1650800B21
:101730001B1A16501624206E15BE20802050D8B4D7
:101740000DD02028D8A408D0000E136E000E146E01
:10175000000E156E000E166E158E08D0000E136E5C
:10176000000E146E000E156E000E166E2050D8B4CA
:1017700003D02150D8A409D0000E0F6E000E106EB9
:10178000000E116E000E126E120015500F02F3CFF4
:1017900026F0F4CF27F026501C6E1D6A1E6A1F6AC1
:1017A0002750226E236A246A256A14501002F3CF50
:1017B00026F0F4CF27F026501C26000E1D221E22F4
:1017C0001F2227502226000E2322242225221350D6
:1017D0001102F3CF26F0F4CF27F026501C26000E7E
:1017E0001D221E221F2227502226000E23222422E1
:1017F00025221EC01FF01DC01EF01CC01DF01C6A5B
:1018000013501002F3CF26F0F4CF27F026501C26F9
:1018100027501D22000E1E22000E1F2214500F0200
:10182000F3CF26F0F4CF27F026501C2627501D2298
:10183000000E1E22000E1F221EC01FF01DC01EF033
:101840001CC01DF01C6A13500F02F3CF26F0F4CF1A
:1018500027F026501C2627501D22000E1E22000EA7
:101860001F2215501002F3CF26F0F4CF27F0265098
:10187000222627502322000E2422000E2522145057
:101880001102F3CF26F0F4CF27F02650222627505E
:101890002322000E2422000E252215501102F3CF20
:1018A00026F0F4CF27F02650176E2750186E196ACD
:1018B0001A6A19C01AF018C019F017C018F0176A80
:1018C0001750222618502322195024221A5025225C
:1018D0001CC017F01DC018F01EC019F01FC01AF070
:1018E000190E05D0D8901A32193218321732E82E54
:1018F000F9D71750222618502322195024221A50A3
:1019000025221EC01FF01DC01EF01CC01DF01C6A49
:10191000205021C017F0186A1726000E1822820ED8
:101920001724266EFF0E1820276E0FD0D89022366F
:101930002336243625361FBE2280D8901C361D360D
:101940001E361F362606D8A0270624AEEFD7000E77
:10195000206E1FAE17D0FF0E1C14176EFF0E1D1445
:10196000186EFF0E1E14196E7F0E1F141A6E17507C
:10197000181019101A10D8B403D0010E206E02D01E
:1019800022B0FBD72050D8B41FD0010E2226000E63
:1019900023222422252225A017D022C017F023C0FD
:1019A00018F024C019F025C01AF01A341A3219326E
:1019B0001832173217C022F018C023F019C024F0D3
:1019C0001AC025F0264A272A27BE0DD0275003E14A
:1019D0002628D8A008D0000E226E000E236E800E9E
:1019E000246E7F0E20D027BE05D027500EE126049E
:1019F000D8B00BD0000E226E000E236E000E246EA7
:101A0000000E256E000E1B6E0FD026C021F0FF0EBB
:101A10002216FF0E23167F0E2416000E251621B067
:101A2000248ED8902130256E1B50251222C00FF035
:101A300023C010F024C011F025C012F01200445051
:101A4000800B4D6E445044244F6E43BE4F804F5028
:101A5000D8B40DD04F28D8A408D0000E416E000E87
:101A6000426E000E436E000E446E438E06D0000E92
:101A7000416E000E426E000E436E000E446E4850E2
:101A8000800B4E6E4D504E18D8A44D8C48504824B3
:101A90004E6E47BE4E804E50D8B40DD04E28D8A4BE
:101AA00008D0000E456E000E466E000E476E000E0A
:101AB000486E478E06D0000E456E000E466E000E34
:101AC000476E000E486E4F504E5CD8B022D04DACE1
:101AD00002D0800E4D1A4FC050F04EC04FF050C093
:101AE0004EF041C050F045C041F050C045F042C0FA
:101AF00050F046C042F050C046F043C050F047C0DE
:101B000043F050C047F044C050F048C044F050C0CB
:101B100048F0000E506E4F504EC049F04A6A495E80
:101B2000000E4A5A4ABE2CD04A5004E11A0E495CB3
:101B3000D8A026D04150421043104410D8B402D04F
:101B4000010E01D0000E506E000E416E000E426E6E
:101B5000000E436E000E446E4EC04FF015D050A0E4
:101B600005D0D89050300109506E02D0D890503234
:101B700041B0508E443444324332423241324F2AD3
:101B80004E504F5CD8A0EBD74DBC28D04F50D8A4B6
:101B900009D0000E416E000E426E000E436E000E24
:101BA000446E12004550412646504222475043227F
:101BB0004850442244A071D050A005D0D890503055
:101BC0000109506E02D0D890503241B0508E44344A
:101BD00044324332423241324F2A5FD04550415C59
:101BE00046504258475043584450800A496E485026
:101BF000800A4958D8B025D04150455C496E4250C2
:101C000046584A6E435047584B6E445048584C6EA5
:101C1000FF0E4924416EFF0E4A20426EFF0E4B20FC
:101C2000436EFF0E4C20446E800E4D1A506C505087
:101C3000D8A40FD0010E4126000E42224322442296
:101C400008D04550415E4650425A4750435A48508A
:101C5000445A4150421043104410D8A41CD0505054
:101C6000D8A419D0000E416E000E426E000E436ED5
:101C7000000E446E1200D890413642364336443648
:101C800050BE418050A002D0D88001D0D8905036AC
:101C90004F50D8A44F0643AEEED7000E4E6E50AE56
:101CA0000BD050C049F07F0E4916D8B403D0010EB6
:101CB0004E6E02D041B0FBD74E50D8B420D0010EAA
:101CC0004126000E42224322442244A018D041C0A3
:101CD00049F042C04AF043C04BF044C04CF04C3491
:101CE0004C324B324A32493249C041F04AC042F08C
:101CF0004BC043F04CC044F04F28D8A44F2A4F2883
:101D0000D8B403D04F50D8A40DD0000E416E000EB1
:101D1000426E000E436E000E446E4F50D8A402D0A7
:101D2000000E4D6E4FA002D0438E01D0439ED8903E
:101D30004F30446E4DBE448E41C041F042C042F02F
:101D400043C043F044C044F012002B50800B386E67
:101D50002B502B243F6E2ABE3F803F50D8B40DD06D
:101D60003F28D8A408D0000E286E000E296E000E61
:101D70002A6E000E2B6E2A8E06D0000E286E000EE4
:101D8000296E000E2A6E000E2B6E2F50800B381A13
:101D90002F502F24406E2EBE40804050D8B40DD01E
:101DA0004028D8A408D0000E2C6E000E2D6E000E18
:101DB0002E6E000E2F6E2E8E06D0000E2C6E000E94
:101DC0002D6E000E2E6E000E2F6E2C502D102E102C
:101DD0002F10D8A417D0000E286E000E296E000E0A
:101DE0002A6E000E2B6E800E2A127F0E2B12385098
:101DF0002B1228C028F029C029F02AC02AF02BC0B5
:101E00002BF012003F50D8A409D0000E286E000E0F
:101E1000296E000E2A6E000E2B6E120040503FC03D
:101E200030F0316A305E000E315A7F0E3024396E48
:101E3000000E31203A6E28C034F029C035F02AC097
:101E400036F02BC037F0000E286E000E296E000E03
:101E50002A6E000E2B6E000E3B6E000E3C6E000EC6
:101E60003D6E000E3E6E000E406E28D04050D8B43D
:101E700011D0D8903436353636363736D8902836A5
:101E800029362A362B363EBE2880D8903B363C3643
:101E90003D363E362C50345C2D5035582E50365839
:101EA0002F503758D8A009D03E8C2C50345E2D507E
:101EB000355A2E50365A2F50375A402A190E406440
:101EC000D5D73450351036103710D8B411D03B80E8
:101ED0000FD0D890283629362A362B363EBE288099
:101EE000D8903B363C363D363E363906D8A03A06C9
:101EF0002AAEEFD7000E406E3EAE17D0FF0E3B1459
:101F0000306EFF0E3C14316EFF0E3D14326E7F0EAC
:101F10003E14336E3050311032103310D8B403D029
:101F2000010E406E02D028B0FBD74050D8B41FD06D
:101F3000010E2826000E29222A222B222BA017D0A0
:101F400028C030F029C031F02AC032F02BC033F065
:101F50003334333232323132303230C028F031C093
:101F600029F032C02AF033C02BF0394A3A2A3ABE5F
:101F700010D03A5003E13928D8A00BD0000E3A6EA9
:101F80003968000E286E000E296E000E2A6E000EB3
:101F90002B6E3ABE05D03A5011E13904D8B00ED0BC
:101FA000000E3A6E000E396E000E286E000E296E7D
:101FB000000E2A6E000E2B6E000E386E39C03FF0F8
:101FC0003FA002D02A8E01D02A9ED8903F302B6E9F
:101FD0000ED71EC036F01FC037F020C038F021C029
:101FE00039F022C03AF023C03BF024C03CF025C0B9
:101FF0003DF03DAE02D0010E01D0000E346E356AC8
:1020000034503510D8B410D03D1E3C1E3B1E3A1E35
:10201000391E381E371E366C000E37223822392200
:102020003A223B223C223D22000190AF919390BF87
:1020300005D0905108E18F05D8B005D0000E316E63
:10204000010E306E04D08FC030F090C031F08DC0E2
:1020500032F08EC033F034503510D8A402D091A5A0
:1020600003D03206D8A03306000E3F6E1F0E3E6E20
:10207000000EB76F7CD03E06D8A03F06980E3E24D7
:10208000D96E000E3F20DA6E36C001F037C002F084
:1020900038C003F039C004F03AC005F03BC006F088
:1020A0003CC007F03DC008F00A0E096E000E0A6E33
:1020B000000E0B6E000E0C6E000E0D6E000E0E6EFE
:1020C000000E0F6E000E106E37EC16F001C026F0F9
:1020D00002C027F003C028F004C029F005C02AF090
:1020E00006C02BF007C02CF008C02DF026C013F05E
:1020F00028C014F03FEC1CF01350300FDF6E300698
:10210000D8A031063206D8A0330636C001F037C059
:1021100002F038C003F039C004F03AC005F03BC00B
:1021200006F03CC007F03DC008F00A0E096E000E34
:102130000A6E000E0B6E000E0C6E000E0D6E000E81
:102140000E6E000E0F6E000E106EBDEC13F001C08F
:1021500036F002C037F003C038F004C039F005C0D3
:102160003AF006C03BF007C03CF008C03DF03FBE6F
:1021700020D03F5003E13E04D8A01BD0365037108A
:10218000381039103A103B103C103D10D8A473D7CA
:1021900031BE05D0315002E13004D8B06CD733BE27
:1021A00008D0335003E13204D8A003D0000191B32A
:1021B00062D734503510D8A403D0000191A517D0B0
:1021C0003E06D8A03F0634503510D8A404D0000EE7
:1021D0002F6E2B0E03D0000E2F6E2D0E2E6E980E2E
:1021E0003E24D96E000E3F20DA6E2EC0DFFF1CC0E9
:1021F00011F01DC012F0980E3E24136E000E3F2009
:10220000146E32C015F033C016F07CEC19F011C01A
:102210001CF012C01DF01200000190AF919390BF0E
:1022200005D0905108E18F05D8B005D0000E346E6E
:10223000010E336E04D08FC033F090C034F08DC0E7
:1022400035F08EC036F091A904D0FE0E3526FF0E73
:1022500036221EC037F01FC038F020C039F021C030
:102260003AF022C03BF023C03CF024C03DF025C032
:102270003EF0000E406E1F0E3F6E000EB76F93D003
:102280003F06D8A040060F0E3714416E426A42BE88
:1022900008D0425004E10A0E415CD8A002D0570E8B
:1022A00001D0300E4124416E000E4220426EBF0E1E
:1022B000276EFF0E286E2650296E2A6A275029267F
:1022C00028502A222A5006E11A0E295CD8B002D0E2
:1022D000010E01D0000E2F6E306A2F503010D8B48E
:1022E00027D09F0E276EFF0E286E200E4110296EFC
:1022F000000E42102A6E2750292628502A222A50E2
:1023000006E11A0E295CD8B002D0010E01D0000EF1
:10231000316E326A31503210D8B40AD041C007F061
:1023200042C008F009EC1BF007C041F008C042F0C1
:10233000980E3F24D96E000E4020DA6E41C0DFFFB8
:102340003306D8A034063506D8A0360637C027F0A5
:1023500038C028F039C029F03AC02AF03BC02BF031
:102360003CC02CF03DC02DF03EC02EF0050E09D033
:10237000D8902E322D322C322B322A32293228326A
:102380002732E82EF5D727C037F028C038F029C00B
:1023900039F02AC03AF02BC03BF02CC03CF02DC0E5
:1023A0003DF02EC03EF040BE21D0405004E1020E70
:1023B0003F5CD8A01BD03750381039103A103B1072
:1023C0003C103D103E10D8A45BD734BE05D034502D
:1023D00002E13304D8B054D736BE08D0365003E1FA
:1023E0003504D8A003D0000191B34AD7000191A9C8
:1023F00016D03F06D8A04006980E3F24D96E000E96
:102400004020DA6E26C0DFFF3F06D8A04006980EB7
:102410003F24D96E000E4020DA6E300EDF6E1CC0F5
:1024200011F01DC012F0980E3F24136E000E4020D4
:10243000146E35C015F036C016F07CEC19F011C0E2
:102440001CF012C01DF01200000190AF919390BFDC
:1024500005D0905108E18F05D8B005D0000E2F6E41
:10246000010E2E6E04D08FC02EF090C02FF08DC0C4
:1024700030F08EC031F01EC032F01FC033F020C0EB
:1024800034F021C035F022C036F023C037F024C02C
:1024900038F025C039F0000E3B6E1F0E3A6E000E6C
:1024A000B76F76D03A06D8A03B06980E3A24D96E7C
:1024B000000E3B20DA6E32C001F033C002F034C0AF
:1024C00003F035C004F036C005F037C006F038C060
:1024D00007F039C008F00A0E096E000E0A6E000EF1
:1024E0000B6E000E0C6E000E0D6E000E0E6E000ECA
:1024F0000F6E000E106E80EC18F001C026F002C0C6
:1025000027F003C028F004C029F005C02AF006C057
:102510002BF007C02CF008C02DF02650300FDF6ED6
:102520002E06D8A02F063006D8A0310632C001F002
:1025300033C002F034C003F035C004F036C005F0FB
:1025400037C006F038C007F039C008F00A0E096E2F
:10255000000E0A6E000E0B6E000E0C6E000E0D6E5D
:10256000000E0E6E000E0F6E000E106EBCEC17F01B
:1025700001C032F002C033F003C034F004C035F0C3
:1025800005C036F006C037F007C038F008C039F093
:102590003A503B10D8B41BD03250331034103510A1
:1025A0003610371038103910D8A47CD72FBE05D07C
:1025B0002F5002E12E04D8B075D731BE08D031506B
:1025C00003E13004D8A003D0000191B36BD71CC045
:1025D00011F01DC012F0980E3A24136E000E3B202D
:1025E000146E30C015F031C016F07CEC19F011C03B
:1025F0001CF012C01DF01200000190AF919390BF2B
:1026000005D0905108E18F05D8B005D0000E2F6E8F
:10261000010E2E6E04D08FC02EF090C02FF08DC012
:1026200032F08EC033F01EC034F01FC035F020C031
:1026300036F021C037F022C038F023C039F024C072
:102640003AF025C03BF0000E3D6E1F0E3C6E000EB2
:10265000B76F000E316E000E306E43D03C06D8A02E
:102660003D06070E3414306E316A980E3C24D96E44
:10267000000E3D20DA6E3050300FDF6E2E06D8A0EF
:102680002F063206D8A0330634C026F035C027F016
:1026900036C028F037C029F038C02AF039C02BF0F6
:1026A0003AC02CF03BC02DF0040E09D0D8902D324A
:1026B0002C322B322A322932283227322632E82E87
:1026C000F5D726C034F027C035F028C036F029C031
:1026D00037F02AC038F02BC039F02CC03AF02DC0AA
:1026E0003BF03DBE20D03D5003E13C04D8A01BD0C0
:1026F0003450351036103710381039103A103B105E
:10270000D8A4ACD72FBE05D02F50A8E12E04D8B046
:10271000A5D733BE08D0335003E13204D8A003D08C
:10272000000191B39BD7000191A912D03050311014
:10273000D8B40ED03C06D8A03D06980E3C24D96EE5
:10274000000E3D20DA6E300EDF6E3206D8A0330662
:102750001CC011F01DC012F0980E3C24136E000E28
:102760003D20146E32C015F033C016F07CEC19F029
:1027700011C01CF012C01DF01200000E126E10AE3F
:1027800012D0101E0F1E0E1E0D1E0C1E0B1E0A1E3A
:10279000096C000E0A220B220C220D220E220F229F
:1027A0001022010E126E08AE12D0081E071E061E61
:1027B000051E041E031E021E016C000E02220322CF
:1027C00004220522062207220822010E121A20EEF8
:1027D00013F0070EDE6AE806FDE209500A100B103E
:1027E0000C100D100E100F101010D8B446D0010EA2
:1027F000116E0AD0D89009360A360B360C360D36D3
:102800000E360F361036112A10AEF4D7D890133684
:102810001436153616361736183619361A36095044
:10282000015C0A5002580B5003580C5004580D50CC
:1028300005580E5006580F50075810500858D8A089
:1028400011D00950015E0A50025A0B50035A0C5025
:10285000045A0D50055A0E50065A0F50075A105080
:10286000085A1380D89010320F320E320D320C32CB
:102870000B320A320932112EC9D71250D8B410D0F7
:102880001A1E191E181E171E161E151E141E136C56
:10289000000E1422152216221722182219221A229B
:1028A00013C001F014C002F015C003F016C004F00C
:1028B00017C005F018C006F019C007F01AC008F0DC
:1028C0001200000E166E000E156E000E0F6E000E3A
:1028D0000E6E02D0084A092A010E146E08C0F6FFD7
:1028E00009C0F7FF0800F550200AD8B418D0F70E39
:1028F0000A6EFF0E0B6E08C0F6FF09C0F7FF080056
:10290000F5500C6E0D6A0A500C260B500D220D501E
:1029100004E1050E0C5CD8A002D0000E146E14C0A9
:1029200010F0116A10501110D8B408D0D3D7000E8F
:102930000F6E010E0E6E084A092A2ED008C0F6FF4F
:1029400009C0F7FF0800F5500A6E0B6A0B50000A29
:10295000D8A422D00A502B0AD8B4EDD7060AD8B48E
:10296000E6D71AD015C001F016C002F0000E046EB2
:102970000A0E036ECDEC1CF008C0F6FF09C0F7FF8D
:102980000800F550015E000E025A300E0124156E4B
:10299000000E0220166ECFD7D00E0A6EFF0E0B6E01
:1029A00008C0F6FF09C0F7FF0800F5500C6E0D6A6D
:1029B0000A500C260B500D220D5006E10A0E0C5C3D
:1029C000D8B002D0010E01D0000E126E136A125060
:1029D0001310D8A4C7D70E500F10D8A40DD015C00F
:1029E0000AF016C00BF00A1E0B1E0A4A0B2A0AC078
:1029F00008F00BC009F0120015C008F016C009F06D
:102A00001200096E0950D8A404AE1AD001C005F016
:102A100002C006F003C007F004C008F0051E061E41
:102A2000071E081E052A000E06220722082205C0DE
:102A30000BF006C00CF007C00DF008C00EF008D077
:102A400001C00BF002C00CF003C00DF004C00EF08A
:102A50000150021003100410D8A409D0000E016E1A
:102A6000000E026E000E036E000E046E1200960E33
:102A70000A6E06D00A2AD8900E320D320C320B3272
:102A8000000E0B14056E000E0C14066E000E0D14D5
:102A9000076EFE0E0E14086E055006100710081083
:102AA000D8B40DD0E7D70A2A010E0B26000E0C224F
:102AB0000D220E22D8900E320D320C320B32000E47
:102AC0000B14056E000E0C14066E000E0D14076E2E
:102AD000FF0E0E14086E0550061007100810D8B42B
:102AE00007D0E1D70A06D8900B360C360D360E36D5
:102AF0000DBE03D0020E0A60F5D70AA00D9ED89035
:102B00000A320AC005F0066A076A086A05C008F0BA
:102B1000076A066A056A05500B1206500C12075028
:102B20000D1208500E120950D8A404AE01D00E8E1A
:102B30000BC001F00CC002F00DC003F00EC004F099
:102B4000120020EEEAF010EE0FF0060EDBCFE3FFEE
:102B5000E806FCE20CC01AF00DC01BF01A501B1066
:102B6000D8A404D00F0E1A6E000E1B6E1AC001F00E
:102B70001BC002F0B8EC1CF001C01EF002C01FF038
:102B80008FC01CF090C01DF01DBE0ED01E501C5CEE
:102B90001D50800A0E6E1F50800A0E58D8B004D007
:102BA0001CC01EF01DC01FF01EC01CF01FC01DF079
:102BB0008DC018F08EC019F0000191A10DD016D073
:102BC000000E026E200E016E0AC003F00BC004F06E
:102BD0002CEC19F01E4A1F2A18501E5C1F50800A48
:102BE0000E6E1950800A0E58D8A0EAD7000E176E44
:102BF000000E166E13D01AC0D9FF1BC0DAFFDF50CB
:102C00000E6E0E50016E026A0AC003F00BC004F093
:102C10002CEC19F01A4A1B2A164A172A1C50165C6B
:102C20001750800A0E6E1D50800A0E58D8A0E3D7A8
:102C3000000191B10DD016D0000E026E200E016E73
:102C40000AC003F00BC004F02CEC19F01E4A1F2A36
:102C500018501E5C1F50800A0E6E1950800A0E58C4
:102C6000D8A0EAD71EC00AF01FC00BF01200000E59
:102C7000126E08AE12D0081E071E061E051E041E88
:102C8000031E021E016C000E0222032204220522F2
:102C9000062207220822010E126E10AE10D0101E5E
:102CA0000F1E0E1E0D1E0C1E0B1E0A1E096C000EA2
:102CB0000A220B220C220D220E220F221022095072
:102CC0000A100B100C100D100E100F101010D8B4AD
:102CD0003CD0010E116E0AD0D89009360A360B3658
:102CE0000C360D360E360F361036112A10AEF4D7CC
:102CF0000950015C0A5002580B5003580C500458FC
:102D00000D5005580E5006580F50075810500858CF
:102D1000D8A010D00950015E0A50025A0B50035A35
:102D20000C50045A0D50055A0E50065A0F50075AAF
:102D30001050085AD89010320F320E320D320C3229
:102D40000B320A320932112ED3D71250D8B410D018
:102D5000081E071E061E051E041E031E021E016C11
:102D6000000E022203220422052206220722082244
:102D700001C001F002C002F003C003F004C004F07F
:102D800005C005F006C006F007C007F008C008F04F
:102D90001200000E0001E96F000EE86FA0EC1CF0BD
:102DA00012EC1DF0E8EC1CF0F0EC1CF0948E949CFE
:102DB00047EC17F051C05FF052C060F053C061F0B3
:102DC00054C062F023EC18F05FC0E2F060C0E3F0A2
:102DD000E2C00EF0000E52EC1BF00001E84BE92BB4
:102DE00085C001F086C002F087C003F088C004F0FF
:102DF0003C0E056E000E066E000E076E000E086E8D
:102E00004DEC1AF001500E6E0001E85152EC1BF02F
:102E10000001E807D8A0E907E851C9EC19F0000162
:102E2000E16FE151E46FE56BE84BE92BE851C9EC48
:102E300019F00001E16FE151E66FE76B949EE4C089
:102E40007AF0E5C07BF0000E7BBEFF0E7C6E7D6EDF
:102E500074EC1BF07AC0D8F07BC0D9F0D2EC1BF038
:102E6000E0EC1CF0E6C07AF0E7C07BF0000E7BBE21
:102E7000FF0E7C6E7D6E74EC1BF07AC0D8F07BC0C8
:102E8000D9F0D2EC1BF0E0EC1CF007EF00F006EC00
:102E90001DF0C1909280000E2EEC1BF001C05DF081
:102EA00002C05EF05DC001F05EC002F0036A046A19
:102EB000000E01EC15F001C00FF002C010F003C0CD
:102EC00011F004C012F09F0E136EAB0E146EAD0E17
:102ED000156E3B0E166E76EC0BF00FC055F010C061
:102EE00056F011C057F012C058F0000E2C6E000EB4
:102EF0002D6EA00E2E6E400E2F6E000E136E000E65
:102F0000146E2F0E156E430E166E55C00FF056C080
:102F100010F057C011F058C012F076EC0BF00FC053
:102F200028F010C029F011C02AF012C02BF0A5EC37
:102F30000EF028C041F029C042F02AC043F02BC057
:102F400044F0000E456E000E466EC80E476E410EF0
:102F5000486E1FEC0DF041C059F042C05AF043C01A
:102F60005BF044C05CF059C051F05AC052F05BC0F5
:102F700053F05CC054F0120020EE11F0070EDE6A30
:102F8000E806FDE209500A100B100C100D100E108F
:102F90000F101010D8B446D0010E196E0AD0D89078
:102FA00009360A360B360C360D360E360F3610360D
:102FB000192A10AEF4D7D8901136123613361436BB
:102FC00015361636173618360950015C0A50025865
:102FD0000B5003580C5004580D5005580E5006580D
:102FE0000F50075810500858D8A011D00950015E52
:102FF0000A50025A0B50035A0C50045A0D50055AED
:103000000E50065A0F50075A1050085A1180D89087
:1030100010320F320E320D320C320B320A320932BC
:10302000192EC9D711C001F012C002F013C003F06D
:1030300014C004F015C005F016C006F017C007F064
:1030400018C008F0120061346234686E6850D8A469
:1030500009D0000E5F6E000E606E000E616E000EF5
:10306000626E12005FC063F060C064F061C065F022
:1030700062C066F0200E05D0D890663265326432A8
:103080006332E82EF9D76350676E618EFF0E5F16CC
:10309000FF0E6016FF0E6116000E6216960E685E39
:1030A00068AE0DD06850800A970FD8A0D2D7D890BC
:1030B0006232613260325F32683EF9D70DD01F0E46
:1030C000686407D0C6D7D8905F36603661366236FE
:1030D00068066850D8A4F7D76750D8B408D0621EE5
:1030E000611E601E5F6C000E6022612262225FC062
:1030F0005FF060C060F061C061F062C062F0120019
:1031000009500A100B100C100D100E100F1010109B
:10311000D8B43CD0010E116E0AD0D89009360A36C8
:103120000B360C360D360E360F361036112A10AE11
:10313000F4D70950015C0A5002580B5003580C5048
:1031400004580D5005580E5006580F50075810508F
:103150000858D8A010D00950015E0A50025A0B50EE
:10316000035A0C50045A0D50055A0E50065A0F506F
:10317000075A1050085AD89010320F320E320D32C2
:103180000C320B320A320932112ED3D701C001F0B2
:1031900002C002F003C003F004C004F005C005F053
:1031A00006C006F007C007F008C008F0120001C012
:1031B00008F002C009F003C00AF004C00BF00506D5
:1031C000D8A0060605280FE10628D8A40CD0000ECA
:1031D000026E000E016E1200084A092A0A4A0B2AE2
:1031E0000506D8A0060608C0F6FF09C0F7FF0800CC
:1031F000F5500009D8B41DD00AC0F6FF0BC0F7FF88
:103200000800F5500009D8B414D005500610D8B401
:1032100010D008C0F6FF09C0F7FF0800F5CF07F08F
:103220000AC0F6FF0BC0F7FF0800F5500718D8B426
:10323000D3D708C0F6FF09C0F7FF0800F5CF07F0A5
:103240000AC0F6FF0BC0F7FF0800F550075C016EDF
:10325000026AD8A00206120003500410D8B404D0A9
:1032600003500410D8A404D0015016EC1DF0120035
:1032700020EE04F00350D9260450DA22DE50DE108E
:10328000D8B416D020EE04F00350D9260450DA2228
:1032900010EE02F00350E1260450E222DE50E65C1C
:1032A000E650800A096EDE50800A0958D8B0120034
:1032B00020EE02F00350D9260450DA22DECF05F0CA
:1032C000DDCF06F003C0D9FF04C0DAFFDECF07F080
:1032D000DDCF08F005500724D96E06500820DA6EBD
:1032E00001C0DFFF20EE02F00350D9260450DA229D
:1032F000DE2A000EDD221200000191A10AD013C0C7
:103300000AF014C00BF011C00CF012C00DF0EFEC7D
:103310001BF016BE05D015C01AF016C01BF004D065
:10332000000E1B6E000E1A6E000E196E000E186E47
:103330000CD0000E026E200E016E11C003F012C000
:1033400004F02CEC19F0184A192A1A50185C19507C
:10335000800A176E1B50800A1758D8A0EAD70001C0
:1033600091B10AD013C00AF014C00BF011C00CF0D8
:1033700012C00DF0EFEC1BF013C001F014C002F00E
:10338000B8EC1CF01A500124116E1B500220126E72
:1033900012000001DC6F340E7E6EF20EE82EFED7B6
:1033A0007E2EFCD79568DCC081FF82828294000E5D
:1033B0000001DF6F010EE06F000EDE6F000EDD6FAB
:1033C0008350E015DF13E051E025E06FDD4BDE2B8D
:1033D000DEBFF6D7DE5104E1080EDD5DD8A0F0D7E0
:1033E000340E7E6EF20EE82EFED77E2EFCD782843F
:1033F000949E0001DF517A6E7B6A7C6A7D6A74EC70
:103400001BF07AC0D8F07BC0D9F0D2EC1BF0E0EC16
:103410001CF00001DF51120003500410D8A412D098
:1034200000019551D8B407D0000E0B6E000E0A6E45
:10343000000E956F2DD00FEC1DF001C00AF002C0F8
:103440000BF026D020EE02F00350D9260450DA22E9
:10345000DECF05F0DDCF06F003C0D9FF04C0DAFFF0
:10346000DECF07F0DDCF08F005500724D96E0650F7
:103470000820DA6EDF50096E09500A6E0B6A20EEE2
:1034800002F00350D9260450DA22DE2A000EDD2293
:103490000AC003F00BC004F01200000E096E000E0B
:1034A0000A6E000E0B6E000E0C6E05500610071013
:1034B0000810D8B42AD0010E0D6E06D0D89005366B
:1034C0000636073608360D2A08AEF8D7D8900936E2
:1034D0000A360B360C360550015C06500258075070
:1034E000035808500458D8A009D00550015E065072
:1034F000025A0750035A0850045A0980D8900832DB
:103500000732063205320D2EE1D709C001F00AC09C
:1035100002F00BC003F00CC004F0120074C078F08D
:1035200075C079F0000E00018C6F000E8B6F13D008
:1035300072C043F073C044F0780E456E000E466EC4
:1035400076C047F077C048F026EC03F04350000106
:103550008B2744508C2378C0F6FF79C0F7FF080012
:10356000F5500009D8A4E4D78BC072F08CC073F07A
:103570001200BC0E0001C86F000EC96FB8C0C2F0C7
:10358000B9C0C3F0000EC56F000EC46F000EC76F48
:10359000000EC66FC20E726E000E736EBAC074F06B
:1035A000BBC075F0C80E766E000E776E8EEC1AF00A
:1035B0000001C451B825D96EC551B921DA6E000E8B
:1035C000DF6E120000018D518E11D8A405D08DC080
:1035D0001FF08EC020F006D0FF0E8D251F6EFF0E4F
:1035E0008E21206E1EC098F0000E996F1CC011F045
:1035F0001DC012F0980E136E000E146E1FC015F051
:1036000020C016F07CEC19F011C01CF012C01DF0A7
:1036100012009F0E096EFF0E0A6E07C00BF008C065
:103620000CF009500B260A500C220C5006E11A0E21
:103630000B5CD8B002D0010E01D0000E0D6E0E6AE8
:103640000D500E10D8B405D05F0E0714076E086A2F
:10365000120007C007F008C008F01200056E070E40
:10366000056405D0000E026E000E016E1200C50E3C
:10367000C2160538E842F80BC2120B0E036E620E3A
:10368000E82EFED7032EFCD700D0C282C2B2FED7EE
:10369000C450046E036AC3500324016E000E04205C
:1036A000026E1200106E340E0F6EF20EE82EFED770
:1036B0000F2EFCD7000E956EC00E93169492828446
:1036C000829210C081FF0EC083FF340E0F6EF20E87
:1036D000E82EFED70F2EFCD7340E0F6EF20EE82E1A
:1036E000FED70F2EFCD712007AC0D4F07BC0D5F0E5
:1036F0007CC0D6F07DC0D7F0CA0E0001B86F000EB6
:10370000B96F1D0EBA6F060EBB6FD4C0BCF0D5C02A
:10371000BDF0D6C0BEF0D7C0BFF0B9EC1AF0F8ECDF
:103720001CF0CA0E7A6E000E7B6E1200010E076E40
:10373000200E01180210D8B414D0F70E036EFF0E3D
:10374000046E01C005F002C006F0035005260450C7
:103750000622065004E1050E055CD8A002D0000E3A
:10376000076E07C001F0026A1200160EF66E3A0EDE
:10377000F76E000EF86E00EEEAF010EE07F00900AA
:10378000F5CFEEFFE550E150FAE100EE80F0380EA3
:10379000EE6AE806FDE17F907F92000EF86E000170
:1037A000C9EF16F0949E000E0001DB6F000EDA6F79
:1037B0000CD0DA51D825D96EDB51D921DA6EDF5021
:1037C000FFEC1CF00001DA4BDB2BDA51D825D96E67
:1037D000DB51D921DA6EDF50D8B41200EAD7000EDF
:1037E000106E000E0F6E0BD00EC001F0026A0CC0FE
:1037F00003F00DC004F02CEC19F00F4A102A0F5002
:103800000A24D96E10500B20DA6EDF500E6E0E5067
:10381000D8B41200E9D79F0E036EFF0E046E200E7F
:103820000110056E000E0210066E035005260450AE
:103830000622065006E11A0E055CD8B002D0010E31
:1038400001D0000E016E026A12000600F2B4F2AA64
:1038500014D0F294010E00018527000E86238723E1
:1038600088239751D8B403D0D768340E03D0FE0E06
:10387000D76E0B0ED66E14EC1DF07F92110014BEA5
:1038800005D0145010E11304D8B00DD013C015F0BA
:1038900014C016F0151E161E154A162A15C013F070
:1038A00016C014F0120013C013F014C014F012006C
:1038B0009F0E036EFF0E046E01C005F002C006F0FD
:1038C0000350052604500622065006E11A0E055C38
:1038D000D8B002D0010E01D0000E016E026A1200B3
:1038E000BF0E036EFF0E046E01C005F002C006F0AD
:1038F0000350052604500622065006E11A0E055C08
:10390000D8B002D0010E01D0000E016E026A120082
:10391000D00E036EFF0E046E01C005F002C006F06B
:103920000350052604500622065006E10A0E055CE7
:10393000D8B002D0010E01D0000E016E026A120052
:10394000000E0001856F000E866F000E876F000E5F
:10395000886FD59C9751D8B403D0D768340E03D064
:10396000FE0ED76E0B0ED66EF294000ED56E1200C0
:1039700001C003F002C004F002D0014A022A01C0D3
:10398000D9FF02C0DAFFDF50D8A4F7D70350015C9B
:10399000016E04500258026E120001500302F3CF70
:1039A00005F0F4CF06F001500402F3500626025051
:1039B0000302F350062605C001F006C002F0120013
:1039C000949E0A0EFFEC1CF00D0EFFEC1CF0120092
:1039D000AC8CAC8AAC98AC94AC80190EAF6E120073
:1039E000000EAB6EAB8EAB8CAB88AB96AB8012008F
:1039F000000E036E000E046E0CEC1AF01200016E45
:103A0000949EACA2FED701C0ADFF1200810EC26E23
:0D3A1000800EC16E1200286E756C6C2900CE
:103A1E00016802681200D58E1200D58E12001200B7
:020000040020DA
:08000000FFFFFFFFFFFFFFFF00
:020000040030CA
:0E000000FF071F1EFF8385FF0FC00FE00F409C
:00000001FF
