:020000040000FA
:0600000000F01AEF00F011
:10000800FFFF7F82F2B4F2AA0DD0F294010E000134
:10001800C427000EC523C623C723D768340ED66E5F
:10002800E7EC1FF0FFFF7F921100FFFF44EF1EF087
:1006000000446F6E652072656164696E6720667272
:100610006F6D206D656D6F72792E0054656D70651C
:1006200072617475726520617420616464726573AF
:10063000732000446F6E652077726974696E67205D
:10064000746F206D656D6F72792E0054696D652031
:1006500061742061646472657373200020746F207C
:1006600061646472657373200020646567726565F8
:10067000732043200057726974696E672000206DF3
:10068000696E75746573006868580068686400680E
:1006900068690068686E0068686F0068687500685F
:1006A000687800256C75006C58007A58006C6400FE
:1006B0007A64006C69007A69006C6E007A6E006C76
:1006C0006F007A6F007A75006C78007A78003A20B3
:0506D00000256400009C
:1006D600FFFF45C0D9FF46C0DAFFDECFF6FFDDCF0C
:1006E600F7FF0800FFFFF550250AD8A41CEF0CF011
:1006F60045C0D9FF46C0DAFFDE2A000EDD22000E15
:100706000001CD6F000ECC6FCCC0D0F0CDC0D1F0C3
:10071600CE69CF69000E5A6E000E20D0FFFF000191
:10072600D081FFFF45C0D9FF46C0DAFFDE2A000EA2
:10073600DD223AD0FFFF0001D083F3D7FFFF00018F
:10074600D085EFD7FFFF0001D087EBD7FFFF000171
:10075600D089E7D7FFFF000E5A6E010EFFFF596ED4
:1007660023D0FFFF45C0D9FF46C0DAFFDECFF6FF34
:10077600DDCFF7FF0800FFFFF550496E4A6A4A5081
:10078600000AD8A4E7D74950200AD8B4DBD7030A11
:10079600D8B4DCD7080AD8B4D1D7060AD8B4BED79D
:1007A6001D0AD8B4C7D7D6D7FFFF59505A10D8B4A8
:1007B600D8D70001D0B1D09345C0D9FF46C0DAFFE3
:1007C600DECFF6FFDDCFF7FF0800FFFFF5502A0A60
:1007D600D8A423D045C0D9FF46C0DAFFDE2A000ED2
:1007E600DD2247C0D9FF48C0DAFFDFCF49F0020E4D
:1007F600DE26DFCF4AF0000EDD2249C0D9FF4AC00F
:10080600DAFFDECFCCF0DDCFCDF0CDAF45D0D08155
:10081600CC6DCD1FD8B0CD2B3FD0FFFF45C0D9FF43
:1008260046C0DAFFDECF08F0DDCF09F080EC15F028
:1008360008C0CCF009C0CDF008D0FFFF45C0D9FFF5
:1008460046C0DAFFDE2A000EDD22FFFFD00E496E1B
:10085600FF0E4A6E45C0D9FF46C0DAFFDECFF6FF6F
:10086600DDCFF7FF0800FFFFF5504B6E4C6A49508D
:100876004B264A504C224C5006E10A0E4B5CD8B02F
:1008860002D0010E02D0FFFF000EFFFF5B6E5C6A16
:100896005B505C10D8A4D1D7FFFF45C0D9FF46C036
:1008A600DAFFDECFF6FFDDCFF7FF0800FFFFF550DA
:1008B6002E0AD8A475D0000E0001CF6F000ECE6FA1
:1008C60045C0D9FF46C0DAFFDE2A000EDD2245C04C
:1008D600D9FF46C0DAFFDECFF6FFDDCFF7FF08000F
:1008E600FFFFF5502A0AD8A41CD045C0D9FF46C040
:1008F600DAFFDE2A000EDD2247C0D9FF48C0DAFF44
:10090600DFCF49F0020EDE26DFCF4AF0000EDD22F1
:1009160049C0D9FF4AC0DAFFDECFCEF0DDCFCFF037
:100926003FD0FFFF45C0D9FF46C0DAFFDECF08F053
:10093600DDCF09F080EC15F008C0CEF009C0CFF08D
:1009460008D0FFFF45C0D9FF46C0DAFFDE2A000EF9
:10095600DD22FFFFD00E496EFF0E4A6E45C0D9FF5D
:1009660046C0DAFFDECFF6FFDDCFF7FF0800FFFF58
:10097600F5504B6E4C6A49504B264A504C224C500F
:1009860006E10A0E4B5CD8B002D0010E02D0FFFF82
:10099600000EFFFF5D6E5E6A5D505E10D8A4D1D773
:1009A600FFFF45C0D9FF46C0DAFFDECFF6FFDDCF39
:1009B600F7FF0800FFFFF550630AD8A427D045C00B
:1009C600D9FF46C0DAFFDE2A000EDD2247C0D9FF76
:1009D60048C0DAFFDFCF49F0020EDE26DFCF4AF04D
:1009E600000EDD2249C0D9FF4AC0DAFFDF50696E2A
:1009F60043C01CF044C01DF069C01EF063EC1DF03E
:100A06001CC043F01DC044F038EF0CF0FFFF45C09A
:100A1600D9FF46C0DAFFDECF01F0DDCF02F08B0E44
:100A2600036E060E046E000E066E030E056EA2EC35
:100A36001AF001500210D8B416D045C0D9FF46C0EE
:100A4600DAFFDECF01F0DDCF02F08F0E036E060E69
:100A5600046E000E066E030E056EA2EC1AF001502F
:100A66000210D8A443D0FFFF030E45C0D9FF46C0ED
:100A7600DAFFDE26000EDD2247C0D9FF48C0DAFFC6
:100A8600DFCF49F0020EDE26DFCF4AF0000EDD2270
:100A960049C0D9FF4AC0DAFFDF505F6E000E5FBE65
:100AA600FF0E606EFFFF616E626E636E646E656E52
:100AB600666EFFFF43C01CF044C01DF05FC01EF011
:100AC60060C01FF061C020F062C021F063C022F058
:100AD60064C023F065C024F066C025F09EEC0FF0DC
:100AE6001CC043F01DC044F038EF0CF0FFFF45C0BA
:100AF600D9FF46C0DAFFDECF01F0DDCF02F08C0E63
:100B0600036E060E046E000E066E020E056EA2EC55
:100B16001AF001500210D8B416D045C0D9FF46C00D
:100B2600DAFFDECF01F0DDCF02F0900E036E060E87
:100B3600046E000E066E020E056EA2EC1AF001504F
:100B46000210D8A408D0FFFF020E45C0D9FF46C048
:100B5600DAFFDE2623D0FFFF45C0D9FF46C0DAFF05
:100B6600DECFF6FFDDCFF7FF0800FFFFF550640A82
:100B7600D8B40ED045C0D9FF46C0DAFFDECFF6FFA7
:100B8600DDCFF7FF0800FFFFF550690AD8A421D092
:100B9600FFFF45C0D9FF46C0DAFFDE2AFFFF000E81
:100BA600DD2247C0D9FF48C0DAFFDFCF49F0020E89
:100BB600DE26DFCF4AF0000EDD2249C0D9FF4AC04B
:100BC600DAFFDECF5FF0DDCF60F0000E60BEFF0E15
:100BD60069D7FFFF45C0D9FF46C0DAFFDECF01F077
:100BE600DDCF02F0AD0E036E060E046E000E066E2D
:100BF600020E056EA2EC1AF001500210D8B416D0FF
:100C060045C0D9FF46C0DAFFDECF01F0DDCF02F0E6
:100C1600B30E036E060E046E000E066E020E056E11
:100C2600A2EC1AF001500210D8A443D0FFFF020E26
:100C360045C0D9FF46C0DAFFDE26000EDD2247C0DA
:100C4600D9FF48C0DAFFDFCF49F0040EDE26DFCF3A
:100C56004AF0000EDD2249C0D9FF4AC0DAFFDECFD6
:100C66004BF0DECF4CF0DECF4DF0DECF4EF04BC07A
:100C76004FF04CC050F04DC051F04EC052F0536A88
:100C860052BE536853C054F053C055F053C056F08B
:100C96004FC05FF050C060F051C061F052C062F0CA
:100CA60053C063F054C064F055C065F056C066F09A
:100CB60000D7FFFF45C0D9FF46C0DAFFDECF01F0FF
:100CC600DDCF02F0B00E036E060E046E000E066E49
:100CD600020E056EA2EC1AF001500210D8B416D01E
:100CE60045C0D9FF46C0DAFFDECF01F0DDCF02F006
:100CF600B60E036E060E046E000E066E020E056E2E
:100D0600A2EC1AF001500210D8A428D0FFFF020E60
:100D160045C0D9FF46C0DAFFDE26000EDD2247C0F9
:100D2600D9FF48C0DAFFDFCF49F0020EDE26DFCF5B
:100D36004AF0000EDD2249C0D9FF4AC0DAFFDECFF5
:100D46004BF0DDCF4CF04BC05FF04CC060F0616AF9
:100D5600626A636A646A656A666AABD6FFFF45C003
:100D6600D9FF46C0DAFFDECF01F0DDCF02F0970EE5
:100D7600036E060E046E000E066E030E056EA2ECE2
:100D86001AF001500210D8A441D0030E45C0D9FF75
:100D960046C0DAFFDE26000EDD2247C0D9FF48C076
:100DA600DAFFDFCF49F0020EDE26DFCF4AF0000E73
:100DB600DD2249C0D9FF4AC0DAFFDF504B6E4B50E7
:100DC6006A6E6B6AFFFF6C6A6D6AFFFF6E6A6F6A16
:100DD600706A716A43C01CF044C01DF06AC01EF000
:100DE6006BC01FF06CC020F06DC021F06EC022F009
:100DF6006FC023F070C024F071C025F0B3EC14F07E
:100E06001CC043F01DC044F038EF0CF0FFFF45C096
:100E1600D9FF46C0DAFFDECF01F0DDCF02F0980E33
:100E2600036E060E046E000E066E020E056EA2EC32
:100E36001AF001500210D8B46BD045C0D9FF46C095
:100E4600DAFFDECFF6FFDDCFF7FF0800FFFFF55034
:100E56006F0AD8A406D045C0D9FF46C0DAFFDE2AFD
:100E66005ED0FFFF45C0D9FF46C0DAFFDECF01F0F6
:100E7600DDCF02F0BF0E036E060E046E000E066E88
:100E8600020E056EA2EC1AF001500210D8A429D069
:100E9600020E45C0D9FF46C0DAFFDE26000EDD226F
:100EA60047C0D9FF48C0DAFFDFCF49F0040EDE267F
:100EB600DFCF4AF0000EDD2249C0D9FF4AC0DAFF73
:100EC600DECF4BF0DECF4CF0DECF4DF0DECF4EF076
:100ED6004B506A6E4C506B6E4D506C6E4E506D6E34
:100EE60074D7FFFF45C0D9FF46C0DAFFDECF01F059
:100EF600DDCF02F0C20E036E060E046E000E066E05
:100F0600020E056EA2EC1AF001500210D8A423D0EE
:100F1600FFFF020E45C0D9FF46C0DAFFDE26FFFFFF
:100F2600000EDD2247C0D9FF48C0DAFFDFCF49F007
:100F3600020EDE26DFCF4AF0000EDD2249C0D9FFC1
:100F46004AC0DAFFDECF4BF0DDCF4CF04BC06AF083
:100F56004CC06BF037D7FFFF45C0D9FF46C0DAFF5C
:100F6600DECF01F0DDCF02F0930E036E060E046EA7
:100F7600000E066E030E056EA2EC1AF0015002106A
:100F8600D8A428D0030E45C0D9FF46C0DAFFDE2616
:100F9600000EDD2247C0D9FF48C0DAFFDFCF49F097
:100FA600020EDE26DFCF4AF0000EDD2249C0D9FF51
:100FB6004AC0DAFFDECF67F0DDCF68F067C0D9FF41
:100FC60068C0DAFFCAC0DFFFFFFF000E446E000EE6
:100FD6000FEF0CF0FFFF45C0D9FF46C0DAFFDECFAA
:100FE60001F0DDCF02F0940E036E060E046E000EC5
:100FF600066E020E056EA2EC1AF001500210D8A47D
:101006000BD07FD0FFFF67C0D9FF68C0DAFFCAC028
:10101600DEFFCBC0DDFFD8D7FFFF45C0D9FF46C0F6
:10102600DAFFDECFF6FFDDCFF7FF0800FFFFF55052
:101036006E0AD8A406D045C0D9FF46C0DAFFDE2A1C
:1010460067D0FFFF45C0D9FF46C0DAFFDECF01F00B
:10105600DDCF02F0B90E036E060E046E000E066EAC
:10106600020E056EA2EC1AF001500210D8A432D07E
:10107600020E45C0D9FF46C0DAFFDE26000EDD228D
:1010860047C0D9FF48C0DAFFDFCF49F0020EDE269F
:10109600DFCF4AF0000EDD2249C0D9FF4AC0DAFF91
:1010A600DECF67F0DDCF68F0CAC049F0CBC04AF0AA
:1010B600000E4ABEFF0E4B6E4C6E67C0D9FF68C06D
:1010C600DAFF49C0DEFF4AC0DEFF4BC0DEFF4CC080
:1010D600DEFF7AD7FFFF45C0D9FF46C0DAFFDECF75
:1010E60001F0DDCF02F0BC0E036E060E046E000E9C
:1010F600066E020E056EA2EC1AF001500210D8A47C
:101106001FD0FFFF020E45C0D9FF46C0DAFFDE261C
:10111600FFFF000EDD2247C0D9FF48C0DAFFDFCF50
:1011260049F0020EDE26DFCF4AF0000EDD2249C06E
:10113600D9FF4AC0DAFFDECF67F0DDCF68F062D7AD
:10114600FFFF45C0D9FF46C0DAFFDECFF6FFDDCF91
:10115600F7FF0800FFFFF550700AD8A43ED045C03F
:10116600D9FF46C0DAFFDE2A000EDD2247C0D9FFCE
:1011760048C0DAFFDFCF49F0020EDE26DFCF4AF0A5
:10118600000EDD2249C0D9FF4AC0DAFFDECF4BF0A0
:10119600DDCF4CF04BC06AF04CC06BF06C6A6D6AE8
:1011A6006E6A6F6A706A716A43C01CF044C01DF0B3
:1011B6006AC01EF06BC01FF06CC020F06DC021F03D
:1011C6006EC022F06FC023F070C024F071C025F00D
:1011D600780E266ED3EC10F0B4D1FFFF45C0D9FFD0
:1011E60046C0DAFFDECFF6FFDDCFF7FF0800FFFFD0
:1011F600F550730AD8A42AD045C0D9FF46C0DAFFF5
:10120600DE2A000EDD2247C0D9FF48C0DAFFDFCF55
:1012160049F0020EDE26DFCF4AF0000EDD2249C07D
:10122600D9FF4AC0DAFFDECF57F0DDCF58F043C012
:101236000AF044C00BF057C00CF058C00DF08FEC0C
:1012460017F00AC043F00BC044F00FD3FFFF45C0B0
:10125600D9FF46C0DAFFDECF01F0DDCF02F09B0EEC
:10126600036E060E046E000E066E030E056EA2ECED
:101276001AF001500210D8A440D0030E45C0D9FF81
:1012860046C0DAFFDE26000EDD2247C0D9FF48C081
:10129600DAFFDFCF49F0020EDE26DFCF4AF0000E7E
:1012A600DD2249C0D9FF4AC0DAFFDF504B6E4B50F2
:1012B6006A6E6B6AFFFF6C6A6D6AFFFF6E6A6F6A21
:1012C600706A716A43C01CF044C01DF06AC01EF00B
:1012D6006BC01FF06CC020F06DC021F06EC022F014
:1012E6006FC023F070C024F071C025F0D2EC13F06B
:1012F6001CC043F01DC044F0B8D2FFFF45C0D9FF63
:1013060046C0DAFFDECF01F0DDCF02F09C0E036EA1
:10131600060E046E000E066E020E056EA2EC1AF0A4
:1013260001500210D8B46BD045C0D9FF46C0DAFFD1
:10133600DECFF6FFDDCFF7FF0800FFFFF550750A99
:10134600D8A406D045C0D9FF46C0DAFFDE2A5ED053
:10135600FFFF45C0D9FF46C0DAFFDECF01F0DDCF83
:1013660002F0A40E036E060E046E000E066E020E4A
:10137600056EA2EC1AF001500210D8A429D0020E74
:1013860045C0D9FF46C0DAFFDE26000EDD2247C083
:10139600D9FF48C0DAFFDFCF49F0040EDE26DFCFE3
:1013A6004AF0000EDD2249C0D9FF4AC0DAFFDECF7F
:1013B6004BF0DECF4CF0DECF4DF0DECF4EF04B5093
:1013C6006A6E4C506B6E4D506C6E4E506D6E75D78E
:1013D600FFFF45C0D9FF46C0DAFFDECF01F0DDCF03
:1013E60002F0C50E036E060E046E000E066E020EA9
:1013F600056EA2EC1AF001500210D8A423D0FFFF0C
:10140600020E45C0D9FF46C0DAFFDE26FFFF000EFA
:10141600DD2247C0D9FF48C0DAFFDFCF49F0020E10
:10142600DE26DFCF4AF0000EDD2249C0D9FF4AC0D2
:10143600DAFFDECF4BF0DDCF4CF04BC06AF04CC08C
:101446006BF038D7FFFF45C0D9FF46C0DAFFDECFC5
:1014560001F0DDCF02F09F0E036E060E046E000E45
:10146600066E030E056EA2EC1AF001500210D8B4F7
:1014760016D045C0D9FF46C0DAFFDECF01F0DDCF7A
:1014860002F0870E036E060E046E000E066E030E45
:10149600056EA2EC1AF001500210D8A458D0FFFF36
:1014A60045C0D9FF46C0DAFFDECF49F0DDCF4AF0AE
:1014B600020E4926000E4A2249C0F6FF4AC0F7FF2F
:1014C6000800FFFFF5CF69F0030E45C0D9FF46C0FF
:1014D600DAFFDE26000EDD2247C0D9FF48C0DAFF5C
:1014E600DFCF49F0020EDE26DFCF4AF0000EDD2206
:1014F60049C0D9FF4AC0DAFFDF504B6E4B506A6EC7
:101506006B6AFFFF6C6A6D6AFFFF6E6A6F6A706ACC
:10151600716A43C01CF044C01DF06AC01EF06BC067
:101526001FF06CC020F06DC021F06EC022F06FC0BD
:1015360023F070C024F071C025F069C026F0D3EC0A
:1015460010F0FFFF1CC043F01DC044F08ED1FFFF1A
:1015560045C0D9FF46C0DAFFDECF01F0DDCF02F08D
:10156600A00E036E060E046E000E066E020E056ECB
:10157600A2EC1AF001500210D8B416D045C0D9FF1B
:1015860046C0DAFFDECF01F0DDCF02F0880E036E33
:10159600060E046E000E066E020E056EA2EC1AF022
:1015A60001500210D8A414D0FFFF45C0D9FF46C091
:1015B600DAFFDECF49F0DDCF4AF0010E4926000EF4
:1015C6004A2249C0F6FF4AC0F7FF0800FFFFDBD0FA
:1015D600FFFF45C0D9FF46C0DAFFDECFF6FFDDCFFD
:1015E600F7FF0800FFFFF550780AD8B40ED045C0C3
:1015F600D9FF46C0DAFFDECFF6FFDDCFF7FF0800E2
:10160600FFFFF550580AD8A413D0FFFF45C0D9FFF5
:1016160046C0DAFFDECFF6FFDDCFF7FF0800FFFF9B
:10162600F5CF69F045C0D9FF46C0DAFFDE2AB4D04F
:10163600FFFF45C0D9FF46C0DAFFDECF01F0DDCFA0
:1016460002F0C80E036E060E046E000E066E020E43
:10165600056EA2EC1AF001500210D8B416D045C09F
:10166600D9FF46C0DAFFDECF01F0DDCF02F0A70ECC
:10167600036E060E046E000E066E020E056EA2ECDA
:101686001AF001500210D8A43ED0FFFF45C0D9FF82
:1016960046C0DAFFDECF49F0DDCF4AF0010E49261B
:1016A600000E4A2249C0F6FF4AC0F7FF0800FFFFB6
:1016B600F5CF69F0020E45C0D9FF46C0DAFFDE2637
:1016C600000EDD2247C0D9FF48C0DAFFDFCF49F060
:1016D600040EDE26DFCF4AF0000EDD2249C0D9FF18
:1016E6004AC0DAFFDECF4BF0DECF4CF0DECF4DF056
:1016F600DECF4EF04B506A6E4C506B6E4D506C6E9A
:101706004E506D6E01D7FFFF45C0D9FF46C0DAFFC8
:10171600DECF01F0DDCF02F0CB0E036E060E046EB7
:10172600000E066E020E056EA2EC1AF001500210B3
:10173600D8B416D045C0D9FF46C0DAFFDECF01F0D7
:10174600DDCF02F0AA0E036E060E046E000E066EC4
:10175600020E056EA2EC1AF001500210D8A438D081
:10176600FFFF45C0D9FF46C0DAFFDECF49F0DDCF27
:101776004AF0010E4926000E4A2249C0F6FF4AC029
:10178600F7FF0800FFFFFFFFF5CF69F0020E45C027
:10179600D9FF46C0DAFFDE26FFFF000EDD2247C076
:1017A600D9FF48C0DAFFDFCF49F0020EDE26DFCFD1
:1017B6004AF0000EDD2249C0D9FF4AC0DAFFDECF6B
:1017C6004BF0DDCF4CF04BC06AF04CC06BF099D6B5
:1017D600FFFF45C0D9FF46C0DAFFDECFF6FFDDCFFB
:1017E600F7FF0800FFFFF550250AD8A418D045C01A
:1017F600D9FF46C0DAFFDE2A000EDD22000E026E99
:10180600250E016E43C003F044C004F061EC1BF0EA
:10181600FFFF000E446E010EFFFF436E26D0FFFF52
:1018260045C0D9FF46C0DAFFDE2A000EDD22E7EF0B
:1018360007F0FFFF45C0D9FF46C0DAFFDECFF6FF4F
:10184600DDCFF7FF0800FFFFF550016E026A43C0C7
:1018560003F044C004F061EC1BF045C0D9FF46C05C
:10186600DAFFDE2A000EDD22D3D7FFFF1200FFFFCC
:10187600FFFF1250800B1B6E12501224216E11BEF8
:1018860021802150D8B40ED02128D8A408D0000E2B
:101896000F6E000E106E000E116E000E126EFFFF20
:1018A600118E09D0FFFF000E0F6E000E106E000E97
:1018B600116E000E126EFFFF1650800B1B1A16508B
:1018C6001624206E15BE20802050D8B40ED02028B5
:1018D600D8A408D0000E136E000E146E000E156EFE
:1018E600000E166EFFFF158E09D0FFFF000E136E59
:1018F600000E146E000E156E000E166EFFFF2050C1
:10190600D8B403D02150D8A40AD0FFFF000E0F6E22
:10191600000E106E000E116E000E126E67D1FFFFE4
:1019260015500F02F3CF26F0F4CF27F026501C6E89
:101936001D6A1E6A1F6A2750226E236A246A256A58
:1019460014501002F3CF26F0F4CF27F026501C26B1
:10195600000E1D221E221F2227502226000E2322A1
:101966002422252213501102F3CF26F0F4CF27F0BC
:1019760026501C26000E1D221E221F22275022261C
:10198600000E2322242225221EC01FF01DC01EF099
:101996001CC01DF01C6A13501002F3CF26F0F4CFC2
:1019A60027F026501C2627501D22000E1E22000E50
:1019B6001F2214500F02F3CF26F0F4CF27F0265043
:1019C6001C2627501D22000E1E22000E1F221EC09E
:1019D6001FF01DC01EF01CC01DF01C6A13500F0224
:1019E600F3CF26F0F4CF27F026501C2627501D22D1
:1019F600000E1E22000E1F2215501002F3CF26F0F5
:101A0600F4CF27F02650222627502322000E242228
:101A1600000E252214501102F3CF26F0F4CF27F042
:101A26002650222627502322000E2422000E25228D
:101A360015501102F3CF26F0F4CF27F02650176E7B
:101A46002750186E196A1A6A19C01AF018C019F0C8
:101A560017C018F0176A175022261850232219505B
:101A660024221A5025221CC017F01DC018F01EC0D3
:101A760019F01FC01AF0190E06D0FFFFD8901A32BF
:101A8600193218321732FFFFE82EF7D717502226E1
:101A960018502322195024221A5025221EC01FF046
:101AA6001DC01EF01CC01DF01C6A205021C017F07E
:101AB600186A1726000E1822820E1724266EFF0EAD
:101AC6001820276E10D0FFFFD890223623362436F2
:101AD60025361FBE2280D8901C361D361E361F3670
:101AE6002606D8A02706FFFF24AEEDD7000E206EEF
:101AF6001FAE19D0FF0E1C14176EFF0E1D14186EA4
:101B0600FF0E1E14196E7F0E1F141A6E1750181032
:101B160019101A10D8B404D0FFFF010E206E03D09E
:101B2600FFFF22B0F9D7FFFF2050D8B41FD0010E17
:101B36002226000E23222422252225A017D022C0E9
:101B460017F023C018F024C019F025C01AF01A3473
:101B56001A3219321832173217C022F018C023F081
:101B660019C024F01AC025F0264A272AFFFF27BEEF
:101B76000DD0275003E12628D8A008D0000E226EEB
:101B8600000E236E800E246E7F0E23D0FFFF27BE2D
:101B960005D027500FE12604D8B00CD0FFFF000E69
:101BA600226E000E236E000E246E000E256E000EB1
:101BB6001B6E11D0FFFF26C021F0FF0E2216FF0E6E
:101BC60023167F0E2416000E251621B0248ED890DB
:101BD6002130FFFF256EFFFF1B50251222C00FF09C
:101BE60023C010F024C011F025C012F0FFFF120030
:101BF600FFFFFFFF0450800B0D6E045004240F6E90
:101C060003BE0F800F50D8B40ED00F28D8A408D02A
:101C1600000E016E000E026E000E036E000E046EC4
:101C2600FFFF038E07D0FFFF000E016E000E026E4F
:101C3600000E036EFFFF000E046E0850800B0E6E42
:101C46000D500E18D8A40D8C085008240E6E07BE31
:101C56000E800E50D8B40ED00E28D8A408D0000E90
:101C6600056E000E066E000E076E000E086EFFFF74
:101C7600078E07D0FFFF000E056E000E066E000EE3
:101C8600076EFFFF000E086E0F500E5CD8B023D013
:101C96000DAC02D0800E0D1AFFFF0FC010F00EC063
:101CA6000FF010C00EF001C010F005C001F010C01A
:101CB60005F002C010F006C002F010C006F003C026
:101CC60010F007C003F010C007F004C010F008C001
:101CD60004F010C008F0FFFF000E106E0F500EC08B
:101CE60009F00A6A095E000E0A5A0ABE31D00A5085
:101CF60004E11A0E095CD8A02BD001500210031083
:101D06000410D8B402D0010E02D0FFFF000EFFFF70
:101D1600106E000E016E000E026E000E036E000EB7
:101D2600046E0EC00FF019D0FFFF10A005D0D8909A
:101D360010300109106E03D0FFFFD8901032FFFF5C
:101D460001B0108E043404320332023201320F2AFB
:101D5600FFFF0E500F5CD8A0E7D7FFFF0DBC21D0C8
:101D66000F50D8B465D00550012606500222075000
:101D760003220850042204A07BD010A005D0D890DE
:101D860010300109106E03D0FFFFD8901032FFFF0C
:101D960001B0108E043404320332023201320F2AAB
:101DA60067D0FFFF0550015C0650025807500358E4
:101DB6000450800A096E0850800A0958D8B025D008
:101DC6000150055C096E025006580A6E035007580A
:101DD6000B6E045008580C6EFF0E0924016EFF0EA0
:101DE6000A20026EFF0E0B20036EFF0E0C20046EFF
:101DF600800E0D1A106C1050D8A410D0010E0126BA
:101E0600000E02220322042209D0FFFF0550015EC4
:101E16000650025A0750035A0850045AFFFF015051
:101E2600021003100410D8A420D01050D8A41DD03E
:101E3600FFFF000E016E000E026E000E036E000E16
:101E4600046E76D0FFFFD89001360236033604368C
:101E560010BE018010A002D0D88002D0FFFFD8901B
:101E6600FFFF10360F50D8A40F06FFFF03AEEAD7C8
:101E7600FFFF000E0E6E10AE0DD010C009F07F0EE3
:101E86000916D8B404D0FFFF010E0E6E03D0FFFF73
:101E960001B0F9D7FFFF0E50D8B420D0010E0126AD
:101EA600000E02220322042204A018D001C009F069
:101EB60002C00AF003C00BF004C00CF00C340C3264
:101EC6000B320A32093209C001F00AC002F00BC017
:101ED60003F00CC004F00F28D8A40F2AFFFF0F2828
:101EE600D8B403D00F50D8A40ED0FFFF000E016E59
:101EF600000E026E000E036E000E046E0F50D8A484
:101F060002D0000E0D6EFFFF0FA002D0038E02D08E
:101F1600FFFF039EFFFFD8900F30046E0DBE048EA8
:101F260001C001F002C002F003C003F004C004F0D7
:101F3600FFFF1200FFFFFFFF1EC036F01FC037F085
:101F460020C038F021C039F022C03AF023C03BF05F
:101F560024C03CF025C03DF03DAE02D0010E02D0BB
:101F6600FFFF000EFFFF346E356A34503510D8B4CB
:101F760010D03D1E3C1E3B1E3A1E391E381E371E13
:101F8600366C000E3722382239223A223B223C2276
:101F96003D22FFFF0001CFAFD093CFBF05D0CF5179
:101FA60009E1CE05D8B006D0FFFF000E316E010E56
:101FB600306E05D0FFFFCEC030F0CFC031F0FFFF4E
:101FC600CCC032F0CDC033F034503510D8A402D096
:101FD600D0A504D0FFFF3206D8A03306FFFF000EBF
:101FE6003F6E1F0E3E6E000EF46F7DD0FFFF3E0665
:101FF600D8A03F06D50E3E24D96E000E3F20DA6EDD
:1020060036C001F037C002F038C003F039C004F022
:102016003AC005F03BC006F03CC007F03DC008F0F2
:102026000A0E096E000E0A6E000E0B6E000E0C6E86
:10203600000E0D6E000E0E6E000E0F6E000E106E70
:1020460031EC18F001C026F002C027F003C028F0DA
:1020560004C029F005C02AF006C02BF007C02CF0FA
:1020660008C02DF026C013F028C014F080EC1EF036
:102076001350300FDF6E3006D8A031063206D8A0D6
:10208600330636C001F037C002F038C003F039C05D
:1020960004F03AC005F03BC006F03CC007F03DC076
:1020A60008F00A0E096E000E0A6E000E0B6E000E88
:1020B6000C6E000E0D6E000E0E6E000E0F6E000EF4
:1020C600106EE1EC16F001C036F002C037F003C026
:1020D60038F004C039F005C03AF006C03BF007C03E
:1020E6003CF008C03DF0FFFF3FBE21D03F5003E16A
:1020F6003E04D8A01CD036503710381039103A108C
:102106003B103C103D10D8A471D731BE05D03150DC
:1021160002E13004D8B06AD7FFFF33BE08D033508F
:1021260003E13204D8A003D00001D0B35FD7FFFF8C
:1021360034503510D8A403D00001D0A51AD0FFFF23
:102146003E06D8A03F0634503510D8A404D0000E61
:102156002F6E2B0E04D0FFFF000E2F6E2D0EFFFFED
:102166002E6ED50E3E24D96E000E3F20DA6E2EC09E
:10217600DFFFFFFF1CC011F01DC012F0D50E3E247C
:10218600136E000E3F20146E32C015F033C016F0E9
:10219600B7EC1BF011C01CF012C01DF01200FFFFBF
:1021A600FFFF0001CFAFD093CFBF05D0CF5109E1DC
:1021B600CE05D8B006D0FFFF000E346E010E336E8A
:1021C60005D0FFFFCEC033F0CFC034F0FFFFCCC048
:1021D60035F0CDC036F0D0A904D0FE0E3526FF0E60
:1021E6003622FFFF1EC037F01FC038F020C039F07E
:1021F60021C03AF022C03BF023C03CF024C03DF0A1
:1022060025C03EF0000E406E1F0E3F6E000EF46FAE
:102216009DD0FFFF3F06D8A040060F0E3714416E33
:10222600426A42BE08D0425004E10A0E415CD8A080
:1022360002D0570E02D0FFFF300EFFFF4124416E41
:10224600000E4220426EBF0E276EFF0E286E2650ED
:10225600296E2A6A2750292628502A222A5006E162
:102266001A0E295CD8B002D0010E02D0FFFF000E74
:10227600FFFF2F6E306A2F503010D8B429D09F0E32
:10228600276EFF0E286E200E4110296E000E42109A
:102296002A6E2750292628502A222A5006E11A0E8D
:1022A600295CD8B002D0010E02D0FFFF000EFFFF5E
:1022B600316E326A31503210D8B40AD041C007F0BC
:1022C60042C008F038EC1DF007C041F008C042F0EB
:1022D600FFFFD50E3F24D96E000E4020DA6E41C0B6
:1022E600DFFF3306D8A034063506D8A0360637C039
:1022F60027F038C028F039C029F03AC02AF03BC090
:102306002BF03CC02CF03DC02DF03EC02EF0050E4B
:102316000AD0FFFFD8902E322D322C322B322A32A1
:10232600293228322732FFFFE82EF3D727C037F0AD
:1023360028C038F029C039F02AC03AF02BC03BF04B
:102346002CC03CF02DC03DF02EC03EF0FFFF40BE3D
:1023560022D0405004E1020E3F5CD8A01CD037507A
:10236600381039103A103B103C103D103E10D8A4DE
:1023760050D734BE05D0345002E13304D8B049D723
:10238600FFFF36BE08D0365003E13504D8A003D08F
:102396000001D0B33ED7FFFF0001D0A916D03F06FB
:1023A600D8A04006D50E3F24D96E000E4020DA6E26
:1023B60026C0DFFF3F06D8A04006D50E3F24D96EC3
:1023C600000E4020DA6E300EDF6EFFFF1CC011F0EB
:1023D6001DC012F0D50E3F24136E000E4020146E61
:1023E60035C015F036C016F0B7EC1BF011C01CF066
:1023F60012C01DF01200FFFFFFFF949E3DEC1AF085
:1024060030C03EF031C03FF032C040F033C041F042
:10241600D3EC19F03EC0B0F03FC0B1F0DFEC1FF0D6
:102426003C0E096E000E0A6E000E0B6E000E0C6E50
:1024360088EC1FF001C005F002C006F003C007F0EB
:1024460004C008F00CEC1CF005C0A8F006C0A9F00A
:1024560007C0AAF008C0ABF0640E096E000E0A6E43
:10246600000E0B6E000E0C6EA8C005F0A9C006F09B
:10247600AAC007F0ABC008F00CEC1CF005C0ACF02D
:1024860006C0ADF007C0AEF008C0AFF0ACC005F0B6
:10249600ADC006F0AEC007F0AFC008F03C0E096E46
:1024A600000E0A6E000E0B6E000E0C6E0CEC1CF08D
:1024B60005C0B2F006C0B3F0E3EC1FF0750E0001E4
:1024C600A06F060EA16F99EC1CF0B0C07AF0B1C0F7
:1024D6007BF0000E7BBEFF0E7C6E7D6EDDEC1DF08C
:1024E6007AC0A0F07BC0A1F099EC1CF05C0E000154
:1024F600A06F060EA16F99EC1CF0D2C07AF0D3C083
:102506007BF0000E7BBEFF0E7C6E7D6EDDEC1DF05B
:102516007AC0A0F07BC0A1F099EC1CF093EC1FF000
:10252600B0C001F00001D25149EC1FF0750E000158
:10253600A06F060EA16F99EC1CF0B2C07AF0B3C082
:102546007BF0000E7BBEFF0E7C6E7D6EDDEC1DF01B
:102556007AC0A0F07BC0A1F099EC1CF05C0E0001E3
:10256600A06F060EA16F99EC1CF0010E0001D2259A
:10257600A66F000ED321A76FA6C07AF0A7C07BF086
:10258600000E7BBEFF0E7C6E7D6EDDEC1DF07AC00C
:10259600A0F07BC0A1F099EC1CF093EC1FF0B2C048
:1025A60001F00001D22949EC1FF0020E0001D225EC
:1025B600A66F000ED321A76F0F0EA615D26FD36B91
:1025C600330EA06F060EA16F99EC1CF093EC1FF072
:1025D60093EC1FF01200FFFFFFFFC4EC1FF0949472
:1025E6009D829F8236EC1FF0E3EC1FF0A7EC1FF0F4
:1025F600B1EC1FF0948E949CFFFF948E600E03D076
:10260600FFFF0BEC1FF0FFFF0001BA6F600EBA650B
:10261600F7D77B0EBA61F4D7AFD0FFFFFFEC11F00E
:10262600EBD7FFFF949E200E04D0FFFF0BEC1FF0AC
:102636000001FFFFBA6F2F0EBA65F7D73A0EBA61DF
:10264600F4D7BAC0B4F00F0EB417B451B66FB76B67
:10265600B6C0A6F0B7C0A7F0CDEC18F0CDD7FFFFF7
:10266600C4EC1FF0D3EC1FF09D829F82000E026E19
:1026760001687CEC1FF0000E016E000E5AEC1FF094
:10268600FFFF3DEC1AF030C03EF031C03FF032C0E3
:1026960040F033C041F0D3EC19F03EC0B8F03FC073
:1026A600B9F0949EB8C07AF0B9C07BF0000E7BBE3C
:1026B600FF0E7C6E7D6EDDEC1DF07AC0A0F07BC057
:1026C600A1F099EC1CF093EC1FF00001B9BF06D005
:1026D600B9510BE11E0EB85DD8B007D0FFFF000E52
:1026E600016E000E5AEC1FF036D0FFFFB9BF06D0C0
:1026F600B9510BE1320EB85DD8B007D0FFFF030E1B
:10270600016E0F0E5AEC1FF026D0FFFFB9BF06D0A0
:10271600B9510BE1460EB85DD8B007D0FFFF030EE6
:10272600016E130E5AEC1FF016D0FFFFB9BF06D08C
:10273600B9510BE1640EB85DD8B007D0FFFF030EA8
:10274600016E200E5AEC1FF006D0FFFF030E016E3D
:102756003F0E5AEC1FF0FFFF040E0001B56F0C0E82
:10276600B46FB60EFFFFE82EFDD7B42FFBD7B52FFB
:10277600F9D700D000F084D7FFFFBA51B46FB56B1C
:10278600B551000AD8A438D7B451720AD8B449D77B
:10279600010AD8B442D70B0AD8B461D72DD7FFFFA8
:1027A6000001CFAFD093CFBF05D0CF5109E1CE0501
:1027B600D8B006D0FFFF000E2F6E010E2E6E05D08C
:1027C600FFFFCEC02EF0CFC02FF0FFFFCCC030F001
:1027D600CDC031F01EC032F01FC033F020C034F03F
:1027E60021C035F022C036F023C037F024C038F0BF
:1027F60025C039F0000E3B6E1F0E3A6E000EF46FC8
:1028060077D0FFFF3A06D8A03B06D50E3A24D96EFC
:10281600000E3B20DA6E32C001F033C002F034C045
:1028260003F035C004F036C005F037C006F038C0F6
:1028360007F039C008F00A0E096E000E0A6E000E87
:102846000B6E000E0C6E000E0D6E000E0E6E000E60
:102856000F6E000E106E03EC1BF001C026F002C0D6
:1028660027F003C028F004C029F005C02AF006C0EE
:102876002BF007C02CF008C02DF02650300FDF6E6D
:102886002E06D8A02F063006D8A0310632C001F099
:1028960033C002F034C003F035C004F036C005F092
:1028A60037C006F038C007F039C008F00A0E096EC6
:1028B600000E0A6E000E0B6E000E0C6E000E0D6EF4
:1028C600000E0E6E000E0F6E000E106E65EC19F007
:1028D60001C032F002C033F003C034F004C035F05A
:1028E60005C036F006C037F007C038F008C039F02A
:1028F600FFFF3A503B10D8B41CD03250331034107E
:1029060035103610371038103910D8A47AD72FBEA4
:1029160005D02F5002E12E04D8B073D7FFFF31BE89
:1029260008D0315003E13004D8A003D00001D0B361
:1029360068D7FFFF1CC011F01DC012F0D50E3A2457
:10294600136E000E3B20146E30C015F031C016F029
:10295600B7EC1BF011C01CF012C01DF01200FFFFF7
:10296600FFFF0001CFAFD093CFBF05D0CF5109E114
:10297600CE05D8B006D0FFFF000E2F6E010E2E6ECC
:1029860005D0FFFFCEC02EF0CFC02FF0FFFFCCC08A
:1029960032F0CDC033F01EC034F01FC035F020C079
:1029A60036F021C037F022C038F023C039F024C0F9
:1029B6003AF025C03BF0000E3D6E1F0E3C6E000E39
:1029C600F46F000E316E000E306E46D0FFFF3C06EF
:1029D600D8A03D06070E3414306E316AD50E3C245D
:1029E600D96E000E3D20DA6E3050300FDF6E2E06A7
:1029F600D8A02F063206D8A0330634C026F035C03C
:102A060027F036C028F037C029F038C02AF039C080
:102A16002BF03AC02CF03BC02DF0040E0AD0FFFF7D
:102A2600D8902D322C322B322A32293228322732B4
:102A36002632FFFFE82EF3D726C034F027C035F044
:102A460028C036F029C037F02AC038F02BC039F03C
:102A56002CC03AF02DC03BF0FFFF3DBE21D03D50CB
:102A660003E13C04D8A01CD0345035103610371082
:102A7600381039103A103B10D8A4A8D72FBE05D06D
:102A86002F50A4E12E04D8B0A1D7FFFF33BE08D043
:102A9600335003E13204D8A003D00001D0B396D757
:102AA600FFFF0001D0A912D030503110D8B40ED09B
:102AB6003C06D8A03D06D50E3C24D96E000E3D201E
:102AC600DA6E300EDF6E3206D8A03306FFFF1CC06A
:102AD60011F01DC012F0D50E3C24136E000E3D20E1
:102AE600146E32C015F033C016F0B7EC1BF011C0EF
:102AF6001CF012C01DF01200FFFFFFFF000E166E45
:102B0600000E156E000E0F6E000E0E6E03D0FFFF48
:102B1600084A092AFFFF010E146E08C0F6FF09C015
:102B2600F7FF0800FFFFF550200AD8B419D0F70EBA
:102B36000A6EFF0E0B6E08C0F6FF09C0F7FF08000D
:102B4600FFFFF5500C6E0D6A0A500C260B500D2235
:102B56000D5004E1050E0C5CD8A002D0000E146ED8
:102B6600FFFF14C010F0116A10501110D8B40AD02B
:102B7600CED7FFFF000E0F6E010E0E6EFFFF084A46
:102B8600092A32D0FFFF08C0F6FF09C0F7FF080088
:102B9600FFFFF5500A6E0B6A0B50000AD8A424D02A
:102BA6000A502B0AD8B4EAD7060AD8B4E2D71CD002
:102BB600FFFF15C001F016C002F0000E046E0A0EEB
:102BC600036E21EC1FF008C0F6FF09C0F7FF0800EE
:102BD600FFFFF550015E000E025A300E0124156EFD
:102BE600000E0220166ECAD7FFFFD00E0A6EFF0E29
:102BF6000B6E08C0F6FF09C0F7FF0800FFFFF5508F
:102C06000C6E0D6A0A500C260B500D220D5006E173
:102C16000A0E0C5CD8B002D0010E02D0FFFF000EE7
:102C2600FFFF126E136A12501310D8A4C1D70E50AC
:102C36000F10D8A40DD015C00AF016C00BF00A1E4E
:102C46000B1E0A4A0B2A0AC008F00BC009F005D071
:102C5600FFFF15C008F016C009F0FFFF1200FFFFC6
:102C6600FFFF096E0950D8A404AE1AD001C005F0C2
:102C760002C006F003C007F004C008F0051E061ED9
:102C8600071E081E052A000E06220722082205C076
:102C96000BF006C00CF007C00DF008C00EF009D00E
:102CA600FFFF01C00BF002C00CF003C00DF004C022
:102CB6000EF0FFFF0150021003100410D8A409D033
:102CC600000E016E000E026E000E036E000E046E04
:102CD60072D0FFFF960E0A6E07D0FFFF0A2AD89021
:102CE6000E320D320C320B32FFFF000E0B14056E46
:102CF600000E0C14066E000E0D14076EFE0E0E145A
:102D0600086E0550061007100810D8B40ED0E5D787
:102D1600FFFF0A2A010E0B26000E0C220D220E22A0
:102D2600D8900E320D320C320B32FFFF000E0B1410
:102D3600056E000E0C14066E000E0D14076EFF0EC7
:102D46000E14086E0550061007100810D8B408D0E7
:102D5600DFD7FFFF0A06D8900B360C360D360E3637
:102D6600FFFF0DBE03D0020E0A60F3D7FFFF0AA0D5
:102D76000D9ED8900A320AC005F0066A076A086AEC
:102D860005C008F0076A066A056A05500B12065068
:102D96000C1207500D1208500E120950D8A404AE9A
:102DA60001D00E8EFFFF0BC001F00CC002F00DC06B
:102DB60003F00EC004F0FFFF1200FFFFFFFF000E3E
:102DC600126E10AE12D0101E0F1E0E1E0D1E0C1E01
:102DD6000B1E0A1E096C000E0A220B220C220D2263
:102DE6000E220F221022010E126EFFFF08AE12D025
:102DF600081E071E061E051E041E031E021E016C6B
:102E0600000E02220322042205220622072208229D
:102E1600010E121AFFFF20EE13F0070EDE6AE80617
:102E2600FDE209500A100B100C100D100E100F10B9
:102E36001010D8B44AD0010E116E0BD0FFFFD890F7
:102E460009360A360B360C360D360E360F36103668
:102E5600112AFFFF10AEF2D7FFFFD89013361436B3
:102E6600153616361736183619361A360950015CD5
:102E76000A5002580B5003580C5004580D50055870
:102E86000E5006580F50075810500858D8A011D0A9
:102E96000950015E0A50025A0B50035A0C50045A4C
:102EA6000D50055A0E50065A0F50075A1050085A20
:102EB6001380FFFFD89010320F320E320D320C32D3
:102EC6000B320A320932112EC7D7FFFF1250D8B47F
:102ED60010D01A1E191E181E171E161E151E141E99
:102EE600136C000E142215221622172218221922FC
:102EF6001A22FFFF13C001F014C002F015C003F040
:102F060016C004F017C005F018C006F019C007F087
:102F16001AC008F01200FFFFFFFF20EEF5F010EEDA
:102F26000FF0060EDBCFE3FFE806FCE20CC01AF05A
:102F36000DC01BF01A501B10D8A404D00F0E1A6E29
:102F4600000E1B6EFFFF1AC001F01BC002F0F2EC70
:102F56001EF001C01EF002C01FF0CEC01CF0CFC094
:102F66001DF01DBE0ED01E501C5C1D50800A0E6E3C
:102F76001F50800A0E58D8B004D01CC01EF01DC0C9
:102F86001FF0FFFF1EC01CF01FC01DF0CCC018F0C4
:102F9600CDC019F00001D0A10ED018D0FFFF000E51
:102FA600026E200E016E0AC003F00BC004F061EC45
:102FB6001BF01E4A1F2AFFFF18501E5C1F50800A76
:102FC6000E6E1950800A0E58D8A0E8D7FFFF000EE3
:102FD600176E000E166E14D0FFFF1AC0D9FF1BC065
:102FE600DAFFDF500E6E0E50016E026A0AC003F061
:102FF6000BC004F061EC1BF01A4A1B2A164A172A6A
:10300600FFFF1C50165C1750800A0E6E1D50800A7A
:103016000E58D8A0E1D70001D0B10ED018D0FFFFCE
:10302600000E026E200E016E0AC003F00BC004F003
:1030360061EC1BF01E4A1F2AFFFF18501E5C1F5032
:10304600800A0E6E1950800A0E58D8A0E8D7FFFFE6
:103056001EC00AF01FC00BF01200FFFFFFFF000E9C
:10306600126E08AE12D0081E071E061E051E041E8E
:10307600031E021E016C000E0222032204220522F8
:10308600062207220822010E126EFFFF10AE10D094
:10309600101E0F1E0E1E0D1E0C1E0B1E0A1E096C88
:1030A600000E0A220B220C220D220E220F221022C3
:1030B600FFFF09500A100B100C100D100E100F1008
:1030C6001010D8B440D0010E116E0BD0FFFFD8906F
:1030D60009360A360B360C360D360E360F361036D6
:1030E600112AFFFF10AEF2D7FFFF0950015C0A500C
:1030F60002580B5003580C5004580D5005580E50EA
:1031060006580F50075810500858D8A010D009502C
:10311600015E0A50025A0B50035A0C50045A0D50C5
:10312600055A0E50065A0F50075A1050085AFFFFFC
:10313600D89010320F320E320D320C320B320A3268
:103146000932112ED1D7FFFF1250D8B410D0081E65
:10315600071E061E051E041E031E021E016C000E1F
:103166000222032204220522062207220822FFFF4A
:1031760001C001F002C002F003C003F004C004F075
:1031860005C005F006C006F007C007F008C008F045
:103196001200FFFFFFFF0001A6516BEC1FF00001BC
:1031A600A86FA851AA6FAB6BA6296BEC1FF00001A4
:1031B600A86FA851AC6FAD6B949E1B0EA06F060E48
:1031C600A16F99EC1CF0A6C07AF0A7C07BF0000EA8
:1031D6007BBEFF0E7C6E7D6EDDEC1DF07AC0A0F02E
:1031E6007BC0A1F099EC1CF0CE0E0001A06F060E7C
:1031F600A16F99EC1CF0AAC07AF0ABC07BF0000E70
:103206007BBEFF0E7C6E7D6EDDEC1DF07AC0A0F0FD
:103216007BC0A1F099EC1CF0690E0001A06F060EB0
:10322600A16F99EC1CF093EC1FF04B0E0001A06F00
:10323600060EA16F99EC1CF0010E0001A625A86FE1
:10324600000EA721A96FA8C07AF0A9C07BF0000ED6
:103256007BBEFF0E7C6E7D6EDDEC1DF07AC0A0F0AD
:103266007BC0A1F099EC1CF0CE0E0001A06F060EFB
:10327600A16F99EC1CF0ACC07AF0ADC07BF0000EEB
:103286007BBEFF0E7C6E7D6EDDEC1DF07AC0A0F07D
:103296007BC0A1F099EC1CF07E0E0001A06F060E1B
:1032A600A16F99EC1CF093EC1FF0010E0001A06FCA
:1032B600060EA16F99EC1CF093EC1FF093EC1FF037
:1032C6001200FFFFFFFF20EE11F0070EDE6AE80690
:1032D600FDE209500A100B100C100D100E100F1005
:1032E6001010D8B44AD0010E196E0BD0FFFFD8903B
:1032F60009360A360B360C360D360E360F361036B4
:10330600192AFFFF10AEF2D7FFFFD89011361236FA
:103316001336143615361636173618360950015C2C
:103326000A5002580B5003580C5004580D500558BB
:103336000E5006580F50075810500858D8A011D0F4
:103346000950015E0A50025A0B50035A0C50045A97
:103356000D50055A0E50065A0F50075A1050085A6B
:103366001180FFFFD89010320F320E320D320C3220
:103376000B320A320932192EC7D7FFFF11C001F0EE
:1033860012C002F013C003F014C004F015C005F01B
:1033960016C006F017C007F018C008F01200FFFFAD
:1033A600FFFF40344134476E4750D8A40AD0FFFF90
:1033B600000E3E6E000E3F6E000E406E000E416E19
:1033C60056D0FFFF3EC042F03FC043F040C044F03D
:1033D60041C045F0200E06D0FFFFD890453244325A
:1033E60043324232FFFFE82EF7D74250466E408EF8
:1033F600FF0E3E16FF0E3F16FF0E4016000E41163C
:10340600960E475E47AE0ED04750800A970FD8A05B
:10341600CED7FFFFD890413240323F323E32473E50
:10342600F8D710D0FFFF1F0E476408D0C0D7FFFFA4
:10343600D8903E363F36403641364706FFFF475066
:10344600D8A4F5D7FFFF4650D8B408D0411E401E79
:103456003F1E3E6C000E3F2240224122FFFF3EC02F
:103466003EF03FC03FF040C040F041C041F0FFFF9A
:103476001200FFFFFFFFCCEC1FF0C1909280000E00
:103486008EEC1DF001C03CF002C03DF03CC001F0E6
:103496003DC002F0036A046A000E33EC16F001C068
:1034A6000FF002C010F003C011F004C012F09F0E1E
:1034B600136EAB0E146EAD0E156E3B0E166E3BEC18
:1034C6000CF00FC034F010C035F011C036F012C049
:1034D60037F0000E286E000E296E480E2A6E430E37
:1034E6002B6E000E136E000E146E0C0E156E420E31
:1034F600166E34C00FF035C010F036C011F037C06C
:1035060012F03BEC0CF00FC02CF010C02DF011C0E7
:103516002EF012C02FF0B8EC1DF028C038F029C0EC
:1035260039F02AC03AF02BC03BF038C030F039C031
:1035360031F03AC032F03BC033F01200FFFFFFFF1C
:1035460001C008F002C009F003C00AF004C00BF085
:103556000506D8A00606052810E10628D8A40DD031
:10356600000E026E000E016E48D0FFFF084A092ABF
:103576000A4A0B2A0506D8A00606FFFF08C0F6FF72
:1035860009C0F7FF0800FFFFF5500009D8B420D0A6
:103596000AC0F6FF0BC0F7FF0800FFFFF550000951
:1035A600D8B416D005500610D8B412D008C0F6FF0D
:1035B60009C0F7FF0800FFFFF5CF07F00AC0F6FFC6
:1035C6000BC0F7FF0800FFFFF5500718D8B4CDD79A
:1035D600FFFF08C0F6FF09C0F7FF0800FFFFF5CFA1
:1035E60007F00AC0F6FF0BC0F7FF0800FFFFF55013
:1035F600075C016E026AD8A00206FFFF1200FFFFF9
:10360600FFFF09500A100B100C100D100E100F10B2
:103616001010D8B440D0010E116E0BD0FFFFD89019
:1036260009360A360B360C360D360E360F36103680
:10363600112AFFFF10AEF2D7FFFF0950015C0A50B6
:1036460002580B5003580C5004580D5005580E5094
:1036560006580F50075810500858D8A010D00950D7
:10366600015E0A50025A0B50035A0C50045A0D5070
:10367600055A0E50065A0F50075A1050085AFFFFA7
:10368600D89010320F320E320D320C320B320A3213
:103696000932112ED1D7FFFF01C001F002C002F09E
:1036A60003C003F004C004F005C005F006C006F030
:1036B60007C007F008C008F01200FFFFFFFF035025
:1036C6000410D8B404D003500410D8A405D0FFFFCA
:1036D6000150EFEC1FF045D0FFFF20EE04F0035041
:1036E600D9260450DA22DE50DE10D8B416D020EEE9
:1036F60004F00350D9260450DA2210EE02F00350EB
:10370600E1260450E222DE50E65CE650800A096EAD
:10371600DE50800A0958D8B024D0FFFF20EE02F010
:103726000350D9260450DA22DECF05F0DDCF06F0AD
:1037360003C0D9FF04C0DAFFDECF07F0DDCF08F003
:1037460005500724D96E06500820DA6E01C0DFFF47
:1037560020EE02F00350D9260450DA22DE2A000EAB
:10376600DD22FFFF1200FFFFFFFF0001D0A10AD0FC
:1037760013C00AF014C00BF011C00CF012C00DF00B
:1037860023EC1EF0FFFF16BE05D015C01AF016C0BA
:103796001BF005D0FFFF000E1B6E000E1A6EFFFF1A
:1037A600000E196E000E186E0DD0FFFF000E026E91
:1037B600200E016E11C003F012C004F061EC1BF084
:1037C600184A192AFFFF1A50185C1950800A176EFA
:1037D6001B50800A1758D8A0E8D70001D0B10AD0EC
:1037E60013C00AF014C00BF011C00CF012C00DF09B
:1037F60023EC1EF0FFFF13C001F014C002F0F2EC40
:103806001EF01A500124116E1B500220126E120077
:10381600FFFFFFFF000E0D6E000E0E6E000E0F6E08
:10382600000E106E09500A100B100C10D8B42ED0D2
:10383600010E116E07D0FFFFD89009360A360B36F7
:103846000C36112AFFFF0CAEF6D7FFFFD8900D36C7
:103856000E360F3610360950055C0A5006580B50C6
:1038660007580C500858D8A009D00950055E0A50D0
:10387600065A0B50075A0C50085A0D80FFFFD89075
:103886000C320B320A320932112EDFD7FFFF0DC080
:1038960005F00EC006F00FC007F010C008F01200C9
:1038A600FFFFFFFF03500410D8A412D07E50D8B4F7
:1038B60007D0000E0B6E000E0A6E000E7E6E2FD025
:1038C600FFFFDAEC1FF001C00AF002C00BF027D0B0
:1038D600FFFF20EE02F00350D9260450DA22DECF95
:1038E60005F0DDCF06F003C0D9FF04C0DAFFDECF56
:1038F60007F0DDCF08F005500724D96E06500820E2
:10390600DA6EDF50096E09500A6E0B6A20EE02F07D
:103916000350D9260450DA22DE2A000EDD22FFFFEC
:103926000AC003F00BC004F01200FFFFFFFF949ED5
:10393600000E0001A56F000EA46F1ED0FFFF000150
:10394600A451A025A26FA551A121A36FA2C0F6FF85
:10395600A3C0F7FFF86A050EF76404D00800FFFF5E
:10396600F55005D0F6CFE9FFF7CFEAFFEF509DEC13
:103976001FF00001A44BA52BFFFFA451A025A26FA9
:10398600A551A121A36FA2C0F6FFA3C0F7FFF86A55
:10399600050EF76404D00800FFFFF55005D0F6CFFA
:1039A600E9FFF7CFEAFFEF500009D8B41200FFFF96
:1039B600C5D7FFFFFFFF74C078F075C079F0000E21
:1039C6000001CB6F000ECA6F14D0FFFF72C043F028
:1039D60073C044F0780E456E000E466E76C047F012
:1039E60077C048F06BEC03F043500001CA274450FF
:1039F600CB23FFFF78C0F6FF79C0F7FF0800FFFF73
:103A0600F5500009D8A4E1D7CAC072F0CBC073F054
:103A16001200FFFFFFFF840E0001906F000E916FF2
:103A260080C08AF081C08BF0000E8D6F000E8C6F07
:103A3600000E8F6F000E8E6F8A0E726E000E736E02
:103A460082C074F083C075F0900E766E000E776EAD
:103A5600DDEC1CF000018C518025D96E8D51812141
:103A6600DA6E000EDF6E1200FFFFFFFF9F0E096E7B
:103A7600FF0E0A6E07C00BF008C00CF009500B26AB
:103A86000A500C220C5006E11A0E0B5CD8B002D07C
:103A9600010E02D0FFFF000EFFFF0D6E0E6A0D50E5
:103AA6000E10D8B405D05F0E0714076E086A05D04D
:103AB600FFFF07C007F008C008F0FFFF1200FFFF76
:103AC600FFFF0001CC51CD11D8A405D0CCC01FF00A
:103AD600CDC020F007D0FFFFFF0ECC251F6EFF0ED6
:103AE600CD21206EFFFF1EC0D5F0000ED66F1CC084
:103AF60011F01DC012F0D50E136E000E146E1FC00D
:103B060015F020C016F0B7EC1BF011C01CF012C067
:103B16001DF01200FFFFFFFF056E070E056405D0BE
:103B2600000E026E000E016E1DD0FFFFC50EC216FE
:103B36000538E842F80BC212080E036ECB0EFFFFE3
:103B4600E82EFDD7032EFBD700D0C284FFFFC2B4F8
:103B5600FDD7C450046E036AC3500324016E000EE1
:103B66000420026EFFFF1200FFFFFFFF000E2C1A5B
:103B7600000E2D1A000E2E1A800E2F1A28C001F0E4
:103B860029C002F02AC003F02BC004F02CC005F0B7
:103B96002DC006F02EC007F02FC008F0FCEC0DF08B
:103BA60001C028F002C029F003C02AF004C02BF09F
:103BB6001200FFFFFFFF7AC09CF07BC09DF07CC027
:103BC6009EF07DC09FF0920E0001806F000E816F07
:103BD600A30E826F060E836F9CC084F09DC085F095
:103BE6009EC086F09FC087F00DEC1DF0BBEC1FF069
:103BF600920E7A6E000E7B6E1200FFFFFFFF010E23
:103C0600076E200E01180210D8B414D0F70E036EFA
:103C1600FF0E046E01C005F002C006F00350052633
:103C260004500622065004E1050E055CD8A002D019
:103C3600000E076EFFFF07C001F0026A1200FFFFC9
:103C4600FFFF000E106E000E0F6E0CD0FFFF0EC0B1
:103C560001F0026A0CC003F00DC004F061EC1BF029
:103C66000F4A102AFFFF0F500A24D96E10500B205E
:103C7600DA6EDF500E6E0E50D8B41200FFFFE6D794
:103C8600FFFFD60EF66E3F0EF76E000EF86E00EED4
:103C9600F5F010EE07F00900F5CFEEFFE550E15024
:103CA600FAE100EEBBF03A0EEE6AE806FDE17E6A46
:103CB6007F907F92000EF86E0001EFEF12F0FFFF8B
:103CC6009F0E036EFF0E046E200E0110056E000E91
:103CD6000210066E0350052604500622065006E121
:103CE6001A0E055CD8B002D0010E02D0FFFF000EFE
:103CF600FFFF016E026A1200FFFFFFFF14BE05D030
:103D0600145011E11304D8B00ED0FFFF13C015F004
:103D160014C016F0151E161E154A162A15C013F0E5
:103D260016C014F005D0FFFF13C013F014C014F032
:103D3600FFFF1200FFFFFFFF9F0E036EFF0E046ED4
:103D460001C005F002C006F0035005260450062205
:103D5600065006E11A0E055CD8B002D0010E02D05C
:103D6600FFFF000EFFFF016E026A1200FFFFFFFF5A
:103D7600BF0E036EFF0E046E01C005F002C006F012
:103D86000350052604500622065006E11A0E055C6D
:103D9600D8B002D0010E02D0FFFF000EFFFF016E69
:103DA600026A1200FFFFFFFFD00E036EFF0E046EC5
:103DB60001C005F002C006F0035005260450062295
:103DC600065006E10A0E055CD8B002D0010E02D0FC
:103DD600FFFF000EFFFF016E026A1200FFFFFFFFEA
:103DE60001C003F002C004F003D0FFFF014A022A1B
:103DF600FFFF01C0D9FF02C0DAFFDF50D8A4F5D714
:103E06000350015C016E04500258026E1200FFFF5F
:103E1600FFFF0ED0FFFFABA20BD0AB92AB98AB88E7
:103E2600270E016EFC0EFFFFE82EFDD7012EFBD7F5
:103E3600FFFF9EAAEFD7AE501200FFFFFFFF015013
:103E46000302F3CF05F0F4CF06F001500402F3505D
:103E5600062602500302F350062605C001F006C0EE
:103E660002F01200FFFFFFFF000E0001C46F000EFC
:103E7600C56F000EC66F000EC76FD59CD768340E8F
:103E8600D66EF294000ED56E1200FFFFFFFF026E93
:103E96009490000E956EC00E931602C081FF819A13
:103EA6008280829001C083FF82801200FFFFFFFFA5
:103EB600026E02C0BEFF000E036E015003120338ED
:103EC600F00B036EBD50CF0B0310BD6E1200FFFF4B
:103ED600FFFF016E94909568C00E931601C081FF96
:103EE600818A8280819A818A83CF02F002501200F1
:103EF600FFFFFFFFCA94CB68AA0EBE6EBD50070E29
:103F0600CA6E0C0EBD121200FFFFFFFFC4C001F007
:103F1600C5C002F0C6C003F0C7C004F01200FFFF20
:103F2600FFFF949E0A0E9DEC1FF00D0E9DEC1FF0F8
:103F36001200FFFFFFFF016E949EFFFFACA2FDD7AC
:103F460001C0ADFF1200FFFFFFFFAC8CAC8AAC983E
:103F5600AC94AC80190EAF6E1200FFFFFFFF000E8F
:103F6600AB6EAB8EAB8CAB88AB96AB801200FFFF13
:103F7600FFFF000E036E000E046E54EC1CF01200E0
:103F8600FFFFFFFFF28EF28CF28AF184D08E1200D0
:103F9600FFFFFFFF810EC26E800EC16E1200FFFF93
:103FA600FFFFF29EF29CF29AF1941200FFFFFFFFD0
:103FB600016802681200FFFFFFFFD59E1200FFFF97
:103FC600FFFFD58E1200FFFFFFFFD58E1200FFFF09
:073FD600286E756C6C2900D8
:083FDE00FFFF1200FFFFFFFFCF
:020000040020DA
:08000000FFFFFFFFFFFFFFFF00
:020000040030CA
:0E000000FF270F0EFF0181FF0FC00FE00F4022
:00000001FF
